{
  "contractName": "Permissions",
  "abi": [
    {
      "inputs": [],
      "stateMutability": "nonpayable",
      "type": "constructor"
    },
    {
      "inputs": [
        {
          "internalType": "uint256",
          "name": "",
          "type": "uint256"
        }
      ],
      "name": "approvedUser",
      "outputs": [
        {
          "internalType": "address",
          "name": "",
          "type": "address"
        }
      ],
      "stateMutability": "view",
      "type": "function"
    },
    {
      "inputs": [],
      "name": "numberOfapprovedUser",
      "outputs": [
        {
          "internalType": "uint256",
          "name": "",
          "type": "uint256"
        }
      ],
      "stateMutability": "view",
      "type": "function"
    },
    {
      "inputs": [],
      "name": "numberOfrequstsUser",
      "outputs": [
        {
          "internalType": "uint256",
          "name": "",
          "type": "uint256"
        }
      ],
      "stateMutability": "view",
      "type": "function"
    },
    {
      "inputs": [
        {
          "internalType": "uint256",
          "name": "",
          "type": "uint256"
        }
      ],
      "name": "requstsUser",
      "outputs": [
        {
          "internalType": "address",
          "name": "",
          "type": "address"
        }
      ],
      "stateMutability": "view",
      "type": "function"
    },
    {
      "inputs": [
        {
          "internalType": "address",
          "name": "account",
          "type": "address"
        }
      ],
      "name": "request",
      "outputs": [],
      "stateMutability": "nonpayable",
      "type": "function"
    },
    {
      "inputs": [],
      "name": "getUser",
      "outputs": [
        {
          "internalType": "address[]",
          "name": "",
          "type": "address[]"
        }
      ],
      "stateMutability": "view",
      "type": "function"
    },
    {
      "inputs": [],
      "name": "approved",
      "outputs": [],
      "stateMutability": "nonpayable",
      "type": "function"
    }
  ],
  "bytecode": "0x60806040527309458b509c75cab3bcb8ca75468ab88d6d7581286000806101000a81548173ffffffffffffffffffffffffffffffffffffffff021916908373ffffffffffffffffffffffffffffffffffffffff1602179055507309458b509c75cab3bcb8ca75468ab88d6d758128600160006101000a81548173ffffffffffffffffffffffffffffffffffffffff021916908373ffffffffffffffffffffffffffffffffffffffff1602179055507309458b509c75cab3bcb8ca75468ab88d6d758128600260006101000a81548173ffffffffffffffffffffffffffffffffffffffff021916908373ffffffffffffffffffffffffffffffffffffffff1602179055506000600555600060065534801561011857600080fd5b506003600260009054906101000a900473ffffffffffffffffffffffffffffffffffffffff169080600181540180825580915050600190039060005260206000200160009091909190916101000a81548173ffffffffffffffffffffffffffffffffffffffff021916908373ffffffffffffffffffffffffffffffffffffffff160217905550600160076000600260009054906101000a900473ffffffffffffffffffffffffffffffffffffffff1673ffffffffffffffffffffffffffffffffffffffff1673ffffffffffffffffffffffffffffffffffffffff16815260200190815260200160002060006101000a81548160ff02191690831515021790555060016005819055506107268061022f6000396000f3fe608060405234801561001057600080fd5b506004361061007d5760003560e01c8063853f1bc01161005b578063853f1bc0146100c6578063a5c7fb22146100f6578063f1c2fe9a14610114578063f965774c146101325761007d565b806319d40b081461008257806327c78c421461008c578063832880e7146100a8575b600080fd5b61008a610162565b005b6100a660048036038101906100a1919061040b565b610164565b005b6100b06102c9565b6040516100bd919061053e565b60405180910390f35b6100e060048036038101906100db9190610434565b610357565b6040516100ed9190610523565b60405180910390f35b6100fe610396565b60405161010b9190610580565b60405180910390f35b61011c61039c565b6040516101299190610580565b60405180910390f35b61014c60048036038101906101479190610434565b6103a2565b6040516101599190610523565b60405180910390f35b565b80600760008273ffffffffffffffffffffffffffffffffffffffff1673ffffffffffffffffffffffffffffffffffffffff16815260200190815260200160002060009054906101000a900460ff16156101f2576040517f08c379a00000000000000000000000000000000000000000000000000000000081526004016101e990610560565b60405180910390fd5b6003829080600181540180825580915050600190039060005260206000200160009091909190916101000a81548173ffffffffffffffffffffffffffffffffffffffff021916908373ffffffffffffffffffffffffffffffffffffffff1602179055506005600081548092919061026890610621565b91905055506001600760008473ffffffffffffffffffffffffffffffffffffffff1673ffffffffffffffffffffffffffffffffffffffff16815260200190815260200160002060006101000a81548160ff0219169083151502179055505050565b6060600380548060200260200160405190810160405280929190818152602001828054801561034d57602002820191906000526020600020905b8160009054906101000a900473ffffffffffffffffffffffffffffffffffffffff1673ffffffffffffffffffffffffffffffffffffffff1681526020019060010190808311610303575b5050505050905090565b6003818154811061036757600080fd5b906000526020600020016000915054906101000a900473ffffffffffffffffffffffffffffffffffffffff1681565b60065481565b60055481565b600481815481106103b257600080fd5b906000526020600020016000915054906101000a900473ffffffffffffffffffffffffffffffffffffffff1681565b6000813590506103f0816106c2565b92915050565b600081359050610405816106d9565b92915050565b60006020828403121561041d57600080fd5b600061042b848285016103e1565b91505092915050565b60006020828403121561044657600080fd5b6000610454848285016103f6565b91505092915050565b60006104698383610475565b60208301905092915050565b61047e816105e5565b82525050565b61048d816105e5565b82525050565b600061049e826105ab565b6104a881856105c3565b93506104b38361059b565b8060005b838110156104e45781516104cb888261045d565b97506104d6836105b6565b9250506001810190506104b7565b5085935050505092915050565b60006104fe6012836105d4565b915061050982610699565b602082019050919050565b61051d81610617565b82525050565b60006020820190506105386000830184610484565b92915050565b600060208201905081810360008301526105588184610493565b905092915050565b60006020820190508181036000830152610579816104f1565b9050919050565b60006020820190506105956000830184610514565b92915050565b6000819050602082019050919050565b600081519050919050565b6000602082019050919050565b600082825260208201905092915050565b600082825260208201905092915050565b60006105f0826105f7565b9050919050565b600073ffffffffffffffffffffffffffffffffffffffff82169050919050565b6000819050919050565b600061062c82610617565b91507fffffffffffffffffffffffffffffffffffffffffffffffffffffffffffffffff82141561065f5761065e61066a565b5b600182019050919050565b7f4e487b7100000000000000000000000000000000000000000000000000000000600052601160045260246000fd5b7f7573657220616c72656164792065786974730000000000000000000000000000600082015250565b6106cb816105e5565b81146106d657600080fd5b50565b6106e281610617565b81146106ed57600080fd5b5056fea2646970667358221220fbe70352fef0f86055d7cfc0ad1bd8cfb5c3e205c946fff20e068b0a44407ab064736f6c63430008040033",
  "immutableReferences": {},
  "source": "// SPDX-License-Identifier: MIT\npragma solidity >=0.4.22 <0.9.0;\n\ncontract Permissions {\n    //  Abilities to change the membership of a participant group\n    address CAN_ADD_PARTICIPANT = 0x09458B509C75caB3bcb8CA75468aB88d6d758128;\n    address CAN_REMOVE_PARTICIPANT = 0x09458B509C75caB3bcb8CA75468aB88d6d758128;\n    address ADMIN = 0x09458B509C75caB3bcb8CA75468aB88d6d758128;\n\n    address[] public requstsUser;\n    address[] public approvedUser;\n\n    uint256 public numberOfrequstsUser = 0;\n    uint256 public numberOfapprovedUser = 0;\n    mapping(address => bool) userExists;\n\n    constructor() {\n        requstsUser.push(ADMIN);\n        userExists[ADMIN] = true;\n        numberOfrequstsUser = 1;\n    }\n\n    modifier restricted(address sender) {\n        require(\n            (sender == CAN_ADD_PARTICIPANT) ||\n                (sender == CAN_REMOVE_PARTICIPANT) ||\n                (sender == ADMIN),\n            \"Only owner can call this function\"\n        );\n        _;\n    }\n\n    modifier userExistsRequire(address account) {\n        require(!userExists[account], \"user already exits\");\n        _;\n    }\n\n    function request(address account) public userExistsRequire(account) {\n        requstsUser.push(account);\n        numberOfrequstsUser++;\n        userExists[account] = true;\n    }\n\n    function getUser() public view returns (address[] memory) {\n        return requstsUser;\n    }\n\n    function approved() public {}\n}\n",
  "sourcePath": "/home/lenovo/iot-dapp/contracts/Permissions.sol",
  "compiler": {
    "name": "solc",
    "version": "0.8.4+commit.c7e474f2.Emscripten.clang"
  },
  "schemaVersion": "3.4.13",
  "updatedAt": "2023-05-02T13:52:38.301Z",
  "devdoc": {
    "kind": "dev",
    "methods": {},
    "version": 1
  },
  "userdoc": {
    "kind": "user",
    "methods": {},
    "version": 1
  }
}