{
  "contractName": "SipcotPark",
  "abi": [
    {
      "inputs": [
        {
          "internalType": "uint256",
          "name": "",
          "type": "uint256"
        },
        {
          "internalType": "uint256",
          "name": "",
          "type": "uint256"
        }
      ],
      "name": "Flow_meters_industries",
      "outputs": [
        {
          "internalType": "string",
          "name": "state",
          "type": "string"
        }
      ],
      "stateMutability": "view",
      "type": "function"
    },
    {
      "inputs": [
        {
          "internalType": "uint256",
          "name": "",
          "type": "uint256"
        },
        {
          "internalType": "uint256",
          "name": "",
          "type": "uint256"
        }
      ],
      "name": "Organizations",
      "outputs": [
        {
          "internalType": "uint256",
          "name": "id",
          "type": "uint256"
        },
        {
          "internalType": "string",
          "name": "name",
          "type": "string"
        },
        {
          "internalType": "string",
          "name": "water_consumption",
          "type": "string"
        }
      ],
      "stateMutability": "view",
      "type": "function"
    },
    {
      "inputs": [
        {
          "internalType": "uint256",
          "name": "",
          "type": "uint256"
        }
      ],
      "name": "Parks",
      "outputs": [
        {
          "internalType": "uint256",
          "name": "id",
          "type": "uint256"
        },
        {
          "internalType": "string",
          "name": "parkName",
          "type": "string"
        },
        {
          "internalType": "string",
          "name": "water_consumption",
          "type": "string"
        }
      ],
      "stateMutability": "view",
      "type": "function"
    },
    {
      "inputs": [],
      "name": "numberOfFlow_meters_industries",
      "outputs": [
        {
          "internalType": "uint256",
          "name": "",
          "type": "uint256"
        }
      ],
      "stateMutability": "view",
      "type": "function"
    },
    {
      "inputs": [],
      "name": "numberOfOrganization",
      "outputs": [
        {
          "internalType": "uint256",
          "name": "",
          "type": "uint256"
        }
      ],
      "stateMutability": "view",
      "type": "function"
    },
    {
      "inputs": [],
      "name": "numberOfParks",
      "outputs": [
        {
          "internalType": "uint256",
          "name": "",
          "type": "uint256"
        }
      ],
      "stateMutability": "view",
      "type": "function"
    },
    {
      "inputs": [
        {
          "components": [
            {
              "internalType": "uint256",
              "name": "id",
              "type": "uint256"
            },
            {
              "internalType": "string",
              "name": "parkName",
              "type": "string"
            },
            {
              "internalType": "string",
              "name": "water_consumption",
              "type": "string"
            },
            {
              "components": [
                {
                  "internalType": "uint256",
                  "name": "id",
                  "type": "uint256"
                },
                {
                  "internalType": "string",
                  "name": "name",
                  "type": "string"
                },
                {
                  "internalType": "string",
                  "name": "water_consumption",
                  "type": "string"
                }
              ],
              "internalType": "struct SipcotPark.Organization[]",
              "name": "organizations",
              "type": "tuple[]"
            },
            {
              "components": [
                {
                  "internalType": "string",
                  "name": "state",
                  "type": "string"
                }
              ],
              "internalType": "struct SipcotPark.DeviceState[]",
              "name": "flow_meters_industries",
              "type": "tuple[]"
            }
          ],
          "internalType": "struct SipcotPark.Park[]",
          "name": "_data",
          "type": "tuple[]"
        }
      ],
      "name": "storePark",
      "outputs": [],
      "stateMutability": "nonpayable",
      "type": "function"
    },
    {
      "inputs": [],
      "name": "getParkArr",
      "outputs": [
        {
          "components": [
            {
              "internalType": "uint256",
              "name": "id",
              "type": "uint256"
            },
            {
              "internalType": "string",
              "name": "parkName",
              "type": "string"
            },
            {
              "internalType": "string",
              "name": "water_consumption",
              "type": "string"
            }
          ],
          "internalType": "struct SipcotPark.Sipcot_park[]",
          "name": "",
          "type": "tuple[]"
        }
      ],
      "stateMutability": "view",
      "type": "function"
    },
    {
      "inputs": [
        {
          "internalType": "uint256",
          "name": "_id",
          "type": "uint256"
        }
      ],
      "name": "getOrganizationArr",
      "outputs": [
        {
          "components": [
            {
              "internalType": "uint256",
              "name": "id",
              "type": "uint256"
            },
            {
              "internalType": "string",
              "name": "name",
              "type": "string"
            },
            {
              "internalType": "string",
              "name": "water_consumption",
              "type": "string"
            }
          ],
          "internalType": "struct SipcotPark.Organization[]",
          "name": "",
          "type": "tuple[]"
        }
      ],
      "stateMutability": "view",
      "type": "function"
    },
    {
      "inputs": [
        {
          "internalType": "uint256",
          "name": "_id",
          "type": "uint256"
        }
      ],
      "name": "getOrganizationStatus",
      "outputs": [
        {
          "components": [
            {
              "internalType": "string",
              "name": "state",
              "type": "string"
            }
          ],
          "internalType": "struct SipcotPark.DeviceState[]",
          "name": "",
          "type": "tuple[]"
        }
      ],
      "stateMutability": "view",
      "type": "function"
    }
  ],
  "bytecode": "0x608060405260006004556000600555600060065534801561001f57600080fd5b5061207a8061002f6000396000f3fe608060405234801561001057600080fd5b506004361061009e5760003560e01c8063b660789a11610066578063b660789a1461015d578063bd1612961461018f578063d006ed97146101c1578063d586e1ed146101dd578063fc65a3631461020d5761009e565b80630b91f8b1146100a357806311f97e09146100c157806339199c38146100df578063a62fae91146100fd578063b2573e1a1461012d575b600080fd5b6100ab61022b565b6040516100b89190611beb565b60405180910390f35b6100c96105d8565b6040516100d69190611c2f565b60405180910390f35b6100e76105de565b6040516100f49190611c2f565b60405180910390f35b61011760048036038101906101129190611868565b6105e4565b6040516101249190611c0d565b60405180910390f35b6101476004803603810190610142919061183f565b6106a3565b6040516101549190611bc9565b60405180910390f35b61017760048036038101906101729190611868565b610843565b60405161018693929190611c4a565b60405180910390f35b6101a960048036038101906101a4919061183f565b61099a565b6040516101b893929190611c4a565b60405180910390f35b6101db60048036038101906101d691906117fe565b610ad4565b005b6101f760048036038101906101f2919061183f565b6111df565b6040516102049190611ba7565b60405180910390f35b6102156112df565b6040516102229190611c2f565b60405180910390f35b6060600060045467ffffffffffffffff811115610271577f4e487b7100000000000000000000000000000000000000000000000000000000600052604160045260246000fd5b6040519080825280602002602001820160405280156102aa57816020015b6102976112e5565b81526020019060019003908161028f5790505b50905060005b6004548110156105d05760016000828152602001908152602001600020600081548110610306577f4e487b7100000000000000000000000000000000000000000000000000000000600052603260045260246000fd5b906000526020600020906003020160000154828281518110610351577f4e487b7100000000000000000000000000000000000000000000000000000000600052603260045260246000fd5b60200260200101516000018181525050600160008281526020019081526020016000206000815481106103ad577f4e487b7100000000000000000000000000000000000000000000000000000000600052603260045260246000fd5b906000526020600020906003020160010180546103c990611ee3565b80601f01602080910402602001604051908101604052809291908181526020018280546103f590611ee3565b80156104425780601f1061041757610100808354040283529160200191610442565b820191906000526020600020905b81548152906001019060200180831161042557829003601f168201915b5050505050828281518110610480577f4e487b7100000000000000000000000000000000000000000000000000000000600052603260045260246000fd5b602002602001015160200181905250600160008281526020019081526020016000206000815481106104db577f4e487b7100000000000000000000000000000000000000000000000000000000600052603260045260246000fd5b906000526020600020906003020160020180546104f790611ee3565b80601f016020809104026020016040519081016040528092919081815260200182805461052390611ee3565b80156105705780601f1061054557610100808354040283529160200191610570565b820191906000526020600020905b81548152906001019060200180831161055357829003601f168201915b50505050508282815181106105ae577f4e487b7100000000000000000000000000000000000000000000000000000000600052603260045260246000fd5b60200260200101516040018190525080806105c890611f46565b9150506102b0565b508091505090565b60065481565b60055481565b6003602052816000526040600020818154811061060057600080fd5b906000526020600020016000915091505080600001805461062090611ee3565b80601f016020809104026020016040519081016040528092919081815260200182805461064c90611ee3565b80156106995780601f1061066e57610100808354040283529160200191610699565b820191906000526020600020905b81548152906001019060200180831161067c57829003601f168201915b5050505050905081565b606060026000838152602001908152602001600020805480602002602001604051908101604052809291908181526020016000905b8282101561083857838290600052602060002090600302016040518060600160405290816000820154815260200160018201805461071590611ee3565b80601f016020809104026020016040519081016040528092919081815260200182805461074190611ee3565b801561078e5780601f106107635761010080835404028352916020019161078e565b820191906000526020600020905b81548152906001019060200180831161077157829003601f168201915b505050505081526020016002820180546107a790611ee3565b80601f01602080910402602001604051908101604052809291908181526020018280546107d390611ee3565b80156108205780601f106107f557610100808354040283529160200191610820565b820191906000526020600020905b81548152906001019060200180831161080357829003601f168201915b505050505081525050815260200190600101906106d8565b505050509050919050565b6002602052816000526040600020818154811061085f57600080fd5b90600052602060002090600302016000915091505080600001549080600101805461088990611ee3565b80601f01602080910402602001604051908101604052809291908181526020018280546108b590611ee3565b80156109025780601f106108d757610100808354040283529160200191610902565b820191906000526020600020905b8154815290600101906020018083116108e557829003601f168201915b50505050509080600201805461091790611ee3565b80601f016020809104026020016040519081016040528092919081815260200182805461094390611ee3565b80156109905780601f1061096557610100808354040283529160200191610990565b820191906000526020600020905b81548152906001019060200180831161097357829003601f168201915b5050505050905083565b60006020528060005260406000206000915090508060000154908060010180546109c390611ee3565b80601f01602080910402602001604051908101604052809291908181526020018280546109ef90611ee3565b8015610a3c5780601f10610a1157610100808354040283529160200191610a3c565b820191906000526020600020905b815481529060010190602001808311610a1f57829003601f168201915b505050505090806002018054610a5190611ee3565b80601f0160208091040260200160405190810160405280929190818152602001828054610a7d90611ee3565b8015610aca5780601f10610a9f57610100808354040283529160200191610aca565b820191906000526020600020905b815481529060010190602001808311610aad57829003601f168201915b5050505050905083565b60006004548251610ae59190611e41565b905060008060045490505b828110156111d55760006040518060600160405280868581518110610b3e577f4e487b7100000000000000000000000000000000000000000000000000000000600052603260045260246000fd5b6020026020010151600001518152602001868581518110610b88577f4e487b7100000000000000000000000000000000000000000000000000000000600052603260045260246000fd5b6020026020010151602001518152602001868581518110610bd2577f4e487b7100000000000000000000000000000000000000000000000000000000600052603260045260246000fd5b602002602001015160400151815250905060016000838152602001908152602001600020819080600181540180825580915050600190039060005260206000209060030201600090919091909150600082015181600001556020820151816001019080519060200190610c46929190611306565b506040820151816002019080519060200190610c63929190611306565b5050506000858481518110610ca1577f4e487b7100000000000000000000000000000000000000000000000000000000600052603260045260246000fd5b602002602001015160800151511115610e515760005b858481518110610cf0577f4e487b7100000000000000000000000000000000000000000000000000000000600052603260045260246000fd5b60200260200101516080015151811015610e4f5760006040518060200160405280888781518110610d4a577f4e487b7100000000000000000000000000000000000000000000000000000000600052603260045260246000fd5b6020026020010151608001518481518110610d8e577f4e487b7100000000000000000000000000000000000000000000000000000000600052603260045260246000fd5b602002602001015160000151815250905060036000888781518110610ddc577f4e487b7100000000000000000000000000000000000000000000000000000000600052603260045260246000fd5b602002602001015160000151815260200190815260200160002081908060018154018082558091505060019003906000526020600020016000909190919091506000820151816000019080519060200190610e38929190611306565b505050508080610e4790611f46565b915050610cb7565b505b6000858481518110610e8c577f4e487b7100000000000000000000000000000000000000000000000000000000600052603260045260246000fd5b60200260200101516060015151111561119b5760005b858481518110610edb577f4e487b7100000000000000000000000000000000000000000000000000000000600052603260045260246000fd5b602002602001015160600151518110156111995760006040518060600160405280888781518110610f35577f4e487b7100000000000000000000000000000000000000000000000000000000600052603260045260246000fd5b6020026020010151606001518481518110610f79577f4e487b7100000000000000000000000000000000000000000000000000000000600052603260045260246000fd5b6020026020010151600001518152602001888781518110610fc3577f4e487b7100000000000000000000000000000000000000000000000000000000600052603260045260246000fd5b6020026020010151606001518481518110611007577f4e487b7100000000000000000000000000000000000000000000000000000000600052603260045260246000fd5b6020026020010151602001518152602001888781518110611051577f4e487b7100000000000000000000000000000000000000000000000000000000600052603260045260246000fd5b6020026020010151606001518481518110611095577f4e487b7100000000000000000000000000000000000000000000000000000000600052603260045260246000fd5b6020026020010151604001518152509050600260008887815181106110e3577f4e487b7100000000000000000000000000000000000000000000000000000000600052603260045260246000fd5b602002602001015160000151815260200190815260200160002081908060018154018082558091505060019003906000526020600020906003020160009091909190915060008201518160000155602082015181600101908051906020019061114d929190611306565b50604082015181600201908051906020019061116a929190611306565b5050506005600081548092919061118090611f46565b919050555050808061119190611f46565b915050610ea2565b505b82806111a690611f46565b935050600460008154809291906111bc90611f46565b91905055505080806111cd90611f46565b915050610af0565b5060009050505050565b606060036000838152602001908152602001600020805480602002602001604051908101604052809291908181526020016000905b828210156112d45783829060005260206000200160405180602001604052908160008201805461124390611ee3565b80601f016020809104026020016040519081016040528092919081815260200182805461126f90611ee3565b80156112bc5780601f10611291576101008083540402835291602001916112bc565b820191906000526020600020905b81548152906001019060200180831161129f57829003601f168201915b50505050508152505081526020019060010190611214565b505050509050919050565b60045481565b60405180606001604052806000815260200160608152602001606081525090565b82805461131290611ee3565b90600052602060002090601f016020900481019282611334576000855561137b565b82601f1061134d57805160ff191683800117855561137b565b8280016001018555821561137b579182015b8281111561137a57825182559160200191906001019061135f565b5b509050611388919061138c565b5090565b5b808211156113a557600081600090555060010161138d565b5090565b60006113bc6113b784611cb4565b611c8f565b905080838252602082019050828560208602820111156113db57600080fd5b60005b8581101561142557813567ffffffffffffffff8111156113fd57600080fd5b80860161140a8982611621565b855260208501945060208401935050506001810190506113de565b5050509392505050565b600061144261143d84611ce0565b611c8f565b9050808382526020820190508285602086028201111561146157600080fd5b60005b858110156114ab57813567ffffffffffffffff81111561148357600080fd5b8086016114908982611671565b85526020850194506020840193505050600181019050611464565b5050509392505050565b60006114c86114c384611d0c565b611c8f565b905080838252602082019050828560208602820111156114e757600080fd5b60005b8581101561153157813567ffffffffffffffff81111561150957600080fd5b8086016115168982611701565b855260208501945060208401935050506001810190506114ea565b5050509392505050565b600061154e61154984611d38565b611c8f565b90508281526020810184848401111561156657600080fd5b611571848285611ea1565b509392505050565b600082601f83011261158a57600080fd5b813561159a8482602086016113a9565b91505092915050565b600082601f8301126115b457600080fd5b81356115c484826020860161142f565b91505092915050565b600082601f8301126115de57600080fd5b81356115ee8482602086016114b5565b91505092915050565b600082601f83011261160857600080fd5b813561161884826020860161153b565b91505092915050565b60006020828403121561163357600080fd5b61163d6020611c8f565b9050600082013567ffffffffffffffff81111561165957600080fd5b611665848285016115f7565b60008301525092915050565b60006060828403121561168357600080fd5b61168d6060611c8f565b9050600061169d848285016117e9565b600083015250602082013567ffffffffffffffff8111156116bd57600080fd5b6116c9848285016115f7565b602083015250604082013567ffffffffffffffff8111156116e957600080fd5b6116f5848285016115f7565b60408301525092915050565b600060a0828403121561171357600080fd5b61171d60a0611c8f565b9050600061172d848285016117e9565b600083015250602082013567ffffffffffffffff81111561174d57600080fd5b611759848285016115f7565b602083015250604082013567ffffffffffffffff81111561177957600080fd5b611785848285016115f7565b604083015250606082013567ffffffffffffffff8111156117a557600080fd5b6117b1848285016115a3565b606083015250608082013567ffffffffffffffff8111156117d157600080fd5b6117dd84828501611579565b60808301525092915050565b6000813590506117f88161202d565b92915050565b60006020828403121561181057600080fd5b600082013567ffffffffffffffff81111561182a57600080fd5b611836848285016115cd565b91505092915050565b60006020828403121561185157600080fd5b600061185f848285016117e9565b91505092915050565b6000806040838503121561187b57600080fd5b6000611889858286016117e9565b925050602061189a858286016117e9565b9150509250929050565b60006118b08383611ab1565b905092915050565b60006118c48383611adb565b905092915050565b60006118d88383611b32565b905092915050565b60006118eb82611d99565b6118f58185611dec565b93508360208202850161190785611d69565b8060005b85811015611943578484038952815161192485826118a4565b945061192f83611dc5565b925060208a0199505060018101905061190b565b50829750879550505050505092915050565b600061196082611da4565b61196a8185611dfd565b93508360208202850161197c85611d79565b8060005b858110156119b8578484038952815161199985826118b8565b94506119a483611dd2565b925060208a01995050600181019050611980565b50829750879550505050505092915050565b60006119d582611daf565b6119df8185611e0e565b9350836020820285016119f185611d89565b8060005b85811015611a2d5784840389528151611a0e85826118cc565b9450611a1983611ddf565b925060208a019950506001810190506119f5565b50829750879550505050505092915050565b6000611a4a82611dba565b611a548185611e1f565b9350611a64818560208601611eb0565b611a6d8161201c565b840191505092915050565b6000611a8382611dba565b611a8d8185611e30565b9350611a9d818560208601611eb0565b611aa68161201c565b840191505092915050565b60006020830160008301518482036000860152611ace8282611a3f565b9150508091505092915050565b6000606083016000830151611af36000860182611b89565b5060208301518482036020860152611b0b8282611a3f565b91505060408301518482036040860152611b258282611a3f565b9150508091505092915050565b6000606083016000830151611b4a6000860182611b89565b5060208301518482036020860152611b628282611a3f565b91505060408301518482036040860152611b7c8282611a3f565b9150508091505092915050565b611b9281611e97565b82525050565b611ba181611e97565b82525050565b60006020820190508181036000830152611bc181846118e0565b905092915050565b60006020820190508181036000830152611be38184611955565b905092915050565b60006020820190508181036000830152611c0581846119ca565b905092915050565b60006020820190508181036000830152611c278184611a78565b905092915050565b6000602082019050611c446000830184611b98565b92915050565b6000606082019050611c5f6000830186611b98565b8181036020830152611c718185611a78565b90508181036040830152611c858184611a78565b9050949350505050565b6000611c99611caa565b9050611ca58282611f15565b919050565b6000604051905090565b600067ffffffffffffffff821115611ccf57611cce611fed565b5b602082029050602081019050919050565b600067ffffffffffffffff821115611cfb57611cfa611fed565b5b602082029050602081019050919050565b600067ffffffffffffffff821115611d2757611d26611fed565b5b602082029050602081019050919050565b600067ffffffffffffffff821115611d5357611d52611fed565b5b611d5c8261201c565b9050602081019050919050565b6000819050602082019050919050565b6000819050602082019050919050565b6000819050602082019050919050565b600081519050919050565b600081519050919050565b600081519050919050565b600081519050919050565b6000602082019050919050565b6000602082019050919050565b6000602082019050919050565b600082825260208201905092915050565b600082825260208201905092915050565b600082825260208201905092915050565b600082825260208201905092915050565b600082825260208201905092915050565b6000611e4c82611e97565b9150611e5783611e97565b9250827fffffffffffffffffffffffffffffffffffffffffffffffffffffffffffffffff03821115611e8c57611e8b611f8f565b5b828201905092915050565b6000819050919050565b82818337600083830152505050565b60005b83811015611ece578082015181840152602081019050611eb3565b83811115611edd576000848401525b50505050565b60006002820490506001821680611efb57607f821691505b60208210811415611f0f57611f0e611fbe565b5b50919050565b611f1e8261201c565b810181811067ffffffffffffffff82111715611f3d57611f3c611fed565b5b80604052505050565b6000611f5182611e97565b91507fffffffffffffffffffffffffffffffffffffffffffffffffffffffffffffffff821415611f8457611f83611f8f565b5b600182019050919050565b7f4e487b7100000000000000000000000000000000000000000000000000000000600052601160045260246000fd5b7f4e487b7100000000000000000000000000000000000000000000000000000000600052602260045260246000fd5b7f4e487b7100000000000000000000000000000000000000000000000000000000600052604160045260246000fd5b6000601f19601f8301169050919050565b61203681611e97565b811461204157600080fd5b5056fea2646970667358221220ef49579e1c822cf2bb99442cbe70b2efdf504be420a777b8d3d63932dc1971c764736f6c63430008040033",
  "immutableReferences": {},
  "source": "// SPDX-License-Identifier: MIT\npragma solidity >=0.4.22 <0.9.0;\n\ncontract SipcotPark {\n    struct DeviceState {\n        string state;\n    }\n\n    struct Organization {\n        uint256 id;\n        string name;\n        string water_consumption;\n    }\n\n    struct Sipcot_park {\n        uint256 id;\n        string parkName;\n        string water_consumption;\n    }\n\n    struct Park {\n        uint256 id;\n        string parkName;\n        string water_consumption;\n        Organization[] organizations;\n        DeviceState[] flow_meters_industries;\n    }\n\n    mapping(uint256 => Park) public Parks;\n    mapping(uint256 => Sipcot_park[]) Sipcot_parks;\n    mapping(uint256 => Organization[]) public Organizations;\n    mapping(uint256 => DeviceState[]) public Flow_meters_industries;\n\n    uint256 public numberOfParks = 0;\n    uint256 public numberOfOrganization = 0;\n    uint256 public numberOfFlow_meters_industries = 0;\n\n    function storePark(Park[] memory _data) public {\n        uint256 len = _data.length + numberOfParks;\n        uint256 index = 0;\n        for (uint256 i = numberOfParks; i < len; i++) {\n            Sipcot_park memory newSipcot_park = Sipcot_park(\n                _data[index].id,\n                _data[index].parkName,\n                _data[index].water_consumption\n            );\n\n            Sipcot_parks[i].push(newSipcot_park);\n\n            if (_data[index].flow_meters_industries.length > 0) {\n                for (\n                    uint256 k = 0;\n                    k < _data[index].flow_meters_industries.length;\n                    k++\n                ) {\n                    DeviceState memory newStruct = DeviceState(\n                        _data[index].flow_meters_industries[k].state\n                    );\n                    Flow_meters_industries[_data[index].id].push(newStruct);\n                }\n            }\n\n            if (_data[index].organizations.length > 0) {\n                for (\n                    uint256 j = 0;\n                    j < _data[index].organizations.length;\n                    j++\n                ) {\n                    Organization memory newStruct = Organization(\n                        _data[index].organizations[j].id,\n                        _data[index].organizations[j].name,\n                        _data[index].organizations[j].water_consumption\n                    );\n                    Organizations[_data[index].id].push(newStruct);\n                    numberOfOrganization++;\n                }\n            }\n\n            index++;\n            numberOfParks++;\n        }\n\n        index = 0;\n    }\n\n    function getParkArr() public view returns (Sipcot_park[] memory) {\n        Sipcot_park[] memory ret = new Sipcot_park[](numberOfParks);\n        for (uint256 i = 0; i < numberOfParks; i++) {\n            // for(uint256 j = 0; j < Sipcot_parks[i].length; j++){}\n            ret[i].id = Sipcot_parks[i][0].id;\n            ret[i].parkName = Sipcot_parks[i][0].parkName;\n            ret[i].water_consumption = Sipcot_parks[i][0].water_consumption;\n        }\n        return ret;\n    }\n\n    function getOrganizationArr(\n        uint256 _id\n    ) public view returns (Organization[] memory) {\n        return Organizations[_id];\n    }\n\n    function getOrganizationStatus(\n        uint256 _id\n    ) public view returns (DeviceState[] memory) {\n        return Flow_meters_industries[_id];\n    }\n}\n",
  "sourcePath": "/home/lenovo/iot-dapp/contracts/SipcotPark.sol",
  "compiler": {
    "name": "solc",
    "version": "0.8.4+commit.c7e474f2.Emscripten.clang"
  },
  "schemaVersion": "3.4.13",
  "updatedAt": "2023-06-13T05:02:09.396Z",
  "devdoc": {
    "kind": "dev",
    "methods": {},
    "version": 1
  },
  "userdoc": {
    "kind": "user",
    "methods": {},
    "version": 1
  }
}