{
  "contractName": "SipcotPark",
  "abi": [
    {
      "inputs": [
        {
          "internalType": "uint256",
          "name": "",
          "type": "uint256"
        },
        {
          "internalType": "uint256",
          "name": "",
          "type": "uint256"
        }
      ],
      "name": "Organizations",
      "outputs": [
        {
          "internalType": "uint256",
          "name": "id",
          "type": "uint256"
        },
        {
          "internalType": "string",
          "name": "name",
          "type": "string"
        },
        {
          "internalType": "string",
          "name": "water_consumption",
          "type": "string"
        }
      ],
      "stateMutability": "view",
      "type": "function"
    },
    {
      "inputs": [
        {
          "internalType": "uint256",
          "name": "",
          "type": "uint256"
        }
      ],
      "name": "Parks",
      "outputs": [
        {
          "internalType": "uint256",
          "name": "id",
          "type": "uint256"
        },
        {
          "internalType": "string",
          "name": "parkName",
          "type": "string"
        },
        {
          "internalType": "string",
          "name": "water_consumption",
          "type": "string"
        }
      ],
      "stateMutability": "view",
      "type": "function"
    },
    {
      "inputs": [],
      "name": "numberOfOrganization",
      "outputs": [
        {
          "internalType": "uint256",
          "name": "",
          "type": "uint256"
        }
      ],
      "stateMutability": "view",
      "type": "function"
    },
    {
      "inputs": [],
      "name": "numberOfParks",
      "outputs": [
        {
          "internalType": "uint256",
          "name": "",
          "type": "uint256"
        }
      ],
      "stateMutability": "view",
      "type": "function"
    },
    {
      "inputs": [
        {
          "components": [
            {
              "internalType": "uint256",
              "name": "id",
              "type": "uint256"
            },
            {
              "internalType": "string",
              "name": "parkName",
              "type": "string"
            },
            {
              "internalType": "string",
              "name": "water_consumption",
              "type": "string"
            },
            {
              "components": [
                {
                  "internalType": "uint256",
                  "name": "id",
                  "type": "uint256"
                },
                {
                  "internalType": "string",
                  "name": "name",
                  "type": "string"
                },
                {
                  "internalType": "string",
                  "name": "water_consumption",
                  "type": "string"
                }
              ],
              "internalType": "struct SipcotPark.Organization[]",
              "name": "organizations",
              "type": "tuple[]"
            }
          ],
          "internalType": "struct SipcotPark.Park[]",
          "name": "_data",
          "type": "tuple[]"
        }
      ],
      "name": "storePark",
      "outputs": [],
      "stateMutability": "nonpayable",
      "type": "function"
    },
    {
      "inputs": [],
      "name": "getParkArr",
      "outputs": [
        {
          "components": [
            {
              "internalType": "uint256",
              "name": "id",
              "type": "uint256"
            },
            {
              "internalType": "string",
              "name": "parkName",
              "type": "string"
            },
            {
              "internalType": "string",
              "name": "water_consumption",
              "type": "string"
            },
            {
              "components": [
                {
                  "internalType": "uint256",
                  "name": "id",
                  "type": "uint256"
                },
                {
                  "internalType": "string",
                  "name": "name",
                  "type": "string"
                },
                {
                  "internalType": "string",
                  "name": "water_consumption",
                  "type": "string"
                }
              ],
              "internalType": "struct SipcotPark.Organization[]",
              "name": "organizations",
              "type": "tuple[]"
            }
          ],
          "internalType": "struct SipcotPark.Park[]",
          "name": "",
          "type": "tuple[]"
        }
      ],
      "stateMutability": "view",
      "type": "function"
    },
    {
      "inputs": [
        {
          "internalType": "uint256",
          "name": "_id",
          "type": "uint256"
        }
      ],
      "name": "getOrganizationArr",
      "outputs": [
        {
          "components": [
            {
              "internalType": "uint256",
              "name": "id",
              "type": "uint256"
            },
            {
              "internalType": "string",
              "name": "name",
              "type": "string"
            },
            {
              "internalType": "string",
              "name": "water_consumption",
              "type": "string"
            }
          ],
          "internalType": "struct SipcotPark.Organization[]",
          "name": "",
          "type": "tuple[]"
        }
      ],
      "stateMutability": "view",
      "type": "function"
    }
  ],
  "bytecode": "0x60806040526000600255600060035534801561001a57600080fd5b506119908061002a6000396000f3fe608060405234801561001057600080fd5b506004361061007d5760003560e01c8063b660789a1161005b578063b660789a146100ee578063bd16129614610120578063e2e6d5e414610152578063fc65a3631461016e5761007d565b80630b91f8b11461008257806339199c38146100a0578063b2573e1a146100be575b600080fd5b61008a61018c565b60405161009791906115cd565b60405180910390f35b6100a8610552565b6040516100b591906115ef565b60405180910390f35b6100d860048036038101906100d39190611267565b610558565b6040516100e591906115ab565b60405180910390f35b61010860048036038101906101039190611290565b6106f8565b6040516101179392919061160a565b60405180910390f35b61013a60048036038101906101359190611267565b61084f565b6040516101499392919061160a565b60405180910390f35b61016c60048036038101906101679190611226565b610989565b005b610176610e2c565b60405161018391906115ef565b60405180910390f35b6060600060025467ffffffffffffffff8111156101d2577f4e487b7100000000000000000000000000000000000000000000000000000000600052604160045260246000fd5b60405190808252806020026020018201604052801561020b57816020015b6101f8610e32565b8152602001906001900390816101f05790505b50905060005b60025481101561054a5760008082815260200190815260200160002060405180608001604052908160008201548152602001600182018054610252906117f9565b80601f016020809104026020016040519081016040528092919081815260200182805461027e906117f9565b80156102cb5780601f106102a0576101008083540402835291602001916102cb565b820191906000526020600020905b8154815290600101906020018083116102ae57829003601f168201915b505050505081526020016002820180546102e4906117f9565b80601f0160208091040260200160405190810160405280929190818152602001828054610310906117f9565b801561035d5780601f106103325761010080835404028352916020019161035d565b820191906000526020600020905b81548152906001019060200180831161034057829003601f168201915b5050505050815260200160038201805480602002602001604051908101604052809291908181526020016000905b828210156104eb5783829060005260206000209060030201604051806060016040529081600082015481526020016001820180546103c8906117f9565b80601f01602080910402602001604051908101604052809291908181526020018280546103f4906117f9565b80156104415780601f1061041657610100808354040283529160200191610441565b820191906000526020600020905b81548152906001019060200180831161042457829003601f168201915b5050505050815260200160028201805461045a906117f9565b80601f0160208091040260200160405190810160405280929190818152602001828054610486906117f9565b80156104d35780601f106104a8576101008083540402835291602001916104d3565b820191906000526020600020905b8154815290600101906020018083116104b657829003601f168201915b5050505050815250508152602001906001019061038b565b505050508152505082828151811061052c577f4e487b7100000000000000000000000000000000000000000000000000000000600052603260045260246000fd5b602002602001018190525080806105429061185c565b915050610211565b508091505090565b60035481565b606060016000838152602001908152602001600020805480602002602001604051908101604052809291908181526020016000905b828210156106ed5783829060005260206000209060030201604051806060016040529081600082015481526020016001820180546105ca906117f9565b80601f01602080910402602001604051908101604052809291908181526020018280546105f6906117f9565b80156106435780601f1061061857610100808354040283529160200191610643565b820191906000526020600020905b81548152906001019060200180831161062657829003601f168201915b5050505050815260200160028201805461065c906117f9565b80601f0160208091040260200160405190810160405280929190818152602001828054610688906117f9565b80156106d55780601f106106aa576101008083540402835291602001916106d5565b820191906000526020600020905b8154815290600101906020018083116106b857829003601f168201915b5050505050815250508152602001906001019061058d565b505050509050919050565b6001602052816000526040600020818154811061071457600080fd5b90600052602060002090600302016000915091505080600001549080600101805461073e906117f9565b80601f016020809104026020016040519081016040528092919081815260200182805461076a906117f9565b80156107b75780601f1061078c576101008083540402835291602001916107b7565b820191906000526020600020905b81548152906001019060200180831161079a57829003601f168201915b5050505050908060020180546107cc906117f9565b80601f01602080910402602001604051908101604052809291908181526020018280546107f8906117f9565b80156108455780601f1061081a57610100808354040283529160200191610845565b820191906000526020600020905b81548152906001019060200180831161082857829003601f168201915b5050505050905083565b6000602052806000526040600020600091509050806000015490806001018054610878906117f9565b80601f01602080910402602001604051908101604052809291908181526020018280546108a4906117f9565b80156108f15780601f106108c6576101008083540402835291602001916108f1565b820191906000526020600020905b8154815290600101906020018083116108d457829003601f168201915b505050505090806002018054610906906117f9565b80601f0160208091040260200160405190810160405280929190818152602001828054610932906117f9565b801561097f5780601f106109545761010080835404028352916020019161097f565b820191906000526020600020905b81548152906001019060200180831161096257829003601f168201915b5050505050905083565b60005b8151811015610e2857600080600083815260200190815260200160002090508282815181106109e4577f4e487b7100000000000000000000000000000000000000000000000000000000600052603260045260246000fd5b6020026020010151600001518160000181905550828281518110610a31577f4e487b7100000000000000000000000000000000000000000000000000000000600052603260045260246000fd5b602002602001015160200151816001019080519060200190610a54929190610e5a565b50828281518110610a8e577f4e487b7100000000000000000000000000000000000000000000000000000000600052603260045260246000fd5b602002602001015160400151816002019080519060200190610ab1929190610e5a565b506000838381518110610aed577f4e487b7100000000000000000000000000000000000000000000000000000000600052603260045260246000fd5b602002602001015160600151511115610dfc5760005b838381518110610b3c577f4e487b7100000000000000000000000000000000000000000000000000000000600052603260045260246000fd5b60200260200101516060015151811015610dfa5760006040518060600160405280868681518110610b96577f4e487b7100000000000000000000000000000000000000000000000000000000600052603260045260246000fd5b6020026020010151606001518481518110610bda577f4e487b7100000000000000000000000000000000000000000000000000000000600052603260045260246000fd5b6020026020010151600001518152602001868681518110610c24577f4e487b7100000000000000000000000000000000000000000000000000000000600052603260045260246000fd5b6020026020010151606001518481518110610c68577f4e487b7100000000000000000000000000000000000000000000000000000000600052603260045260246000fd5b6020026020010151602001518152602001868681518110610cb2577f4e487b7100000000000000000000000000000000000000000000000000000000600052603260045260246000fd5b6020026020010151606001518481518110610cf6577f4e487b7100000000000000000000000000000000000000000000000000000000600052603260045260246000fd5b602002602001015160400151815250905060016000868681518110610d44577f4e487b7100000000000000000000000000000000000000000000000000000000600052603260045260246000fd5b6020026020010151600001518152602001908152602001600020819080600181540180825580915050600190039060005260206000209060030201600090919091909150600082015181600001556020820151816001019080519060200190610dae929190610e5a565b506040820151816002019080519060200190610dcb929190610e5a565b50505060036000815480929190610de19061185c565b9190505550508080610df29061185c565b915050610b03565b505b60026000815480929190610e0f9061185c565b9190505550508080610e209061185c565b91505061098c565b5050565b60025481565b6040518060800160405280600081526020016060815260200160608152602001606081525090565b828054610e66906117f9565b90600052602060002090601f016020900481019282610e885760008555610ecf565b82601f10610ea157805160ff1916838001178555610ecf565b82800160010185558215610ecf579182015b82811115610ece578251825591602001919060010190610eb3565b5b509050610edc9190610ee0565b5090565b5b80821115610ef9576000816000905550600101610ee1565b5090565b6000610f10610f0b84611674565b61164f565b90508083825260208201905082856020860282011115610f2f57600080fd5b60005b85811015610f7957813567ffffffffffffffff811115610f5157600080fd5b808601610f5e89826110c5565b85526020850194506020840193505050600181019050610f32565b5050509392505050565b6000610f96610f91846116a0565b61164f565b90508083825260208201905082856020860282011115610fb557600080fd5b60005b85811015610fff57813567ffffffffffffffff811115610fd757600080fd5b808601610fe48982611155565b85526020850194506020840193505050600181019050610fb8565b5050509392505050565b600061101c611017846116cc565b61164f565b90508281526020810184848401111561103457600080fd5b61103f8482856117b7565b509392505050565b600082601f83011261105857600080fd5b8135611068848260208601610efd565b91505092915050565b600082601f83011261108257600080fd5b8135611092848260208601610f83565b91505092915050565b600082601f8301126110ac57600080fd5b81356110bc848260208601611009565b91505092915050565b6000606082840312156110d757600080fd5b6110e1606061164f565b905060006110f184828501611211565b600083015250602082013567ffffffffffffffff81111561111157600080fd5b61111d8482850161109b565b602083015250604082013567ffffffffffffffff81111561113d57600080fd5b6111498482850161109b565b60408301525092915050565b60006080828403121561116757600080fd5b611171608061164f565b9050600061118184828501611211565b600083015250602082013567ffffffffffffffff8111156111a157600080fd5b6111ad8482850161109b565b602083015250604082013567ffffffffffffffff8111156111cd57600080fd5b6111d98482850161109b565b604083015250606082013567ffffffffffffffff8111156111f957600080fd5b61120584828501611047565b60608301525092915050565b60008135905061122081611943565b92915050565b60006020828403121561123857600080fd5b600082013567ffffffffffffffff81111561125257600080fd5b61125e84828501611071565b91505092915050565b60006020828403121561127957600080fd5b600061128784828501611211565b91505092915050565b600080604083850312156112a357600080fd5b60006112b185828601611211565b92505060206112c285828601611211565b9150509250929050565b60006112d883836114c5565b905092915050565b60006112ec838361151c565b905092915050565b60006112ff8261171d565b6113098185611758565b93508360208202850161131b856116fd565b8060005b85811015611357578484038952815161133885826112cc565b94506113438361173e565b925060208a0199505060018101905061131f565b50829750879550505050505092915050565b60006113748261171d565b61137e8185611769565b935083602082028501611390856116fd565b8060005b858110156113cc57848403895281516113ad85826112cc565b94506113b88361173e565b925060208a01995050600181019050611394565b50829750879550505050505092915050565b60006113e982611728565b6113f3818561177a565b9350836020820285016114058561170d565b8060005b85811015611441578484038952815161142285826112e0565b945061142d8361174b565b925060208a01995050600181019050611409565b50829750879550505050505092915050565b600061145e82611733565b611468818561178b565b93506114788185602086016117c6565b61148181611932565b840191505092915050565b600061149782611733565b6114a1818561179c565b93506114b18185602086016117c6565b6114ba81611932565b840191505092915050565b60006060830160008301516114dd600086018261158d565b50602083015184820360208601526114f58282611453565b9150506040830151848203604086015261150f8282611453565b9150508091505092915050565b6000608083016000830151611534600086018261158d565b506020830151848203602086015261154c8282611453565b915050604083015184820360408601526115668282611453565b9150506060830151848203606086015261158082826112f4565b9150508091505092915050565b611596816117ad565b82525050565b6115a5816117ad565b82525050565b600060208201905081810360008301526115c58184611369565b905092915050565b600060208201905081810360008301526115e781846113de565b905092915050565b6000602082019050611604600083018461159c565b92915050565b600060608201905061161f600083018661159c565b8181036020830152611631818561148c565b90508181036040830152611645818461148c565b9050949350505050565b600061165961166a565b9050611665828261182b565b919050565b6000604051905090565b600067ffffffffffffffff82111561168f5761168e611903565b5b602082029050602081019050919050565b600067ffffffffffffffff8211156116bb576116ba611903565b5b602082029050602081019050919050565b600067ffffffffffffffff8211156116e7576116e6611903565b5b6116f082611932565b9050602081019050919050565b6000819050602082019050919050565b6000819050602082019050919050565b600081519050919050565b600081519050919050565b600081519050919050565b6000602082019050919050565b6000602082019050919050565b600082825260208201905092915050565b600082825260208201905092915050565b600082825260208201905092915050565b600082825260208201905092915050565b600082825260208201905092915050565b6000819050919050565b82818337600083830152505050565b60005b838110156117e45780820151818401526020810190506117c9565b838111156117f3576000848401525b50505050565b6000600282049050600182168061181157607f821691505b60208210811415611825576118246118d4565b5b50919050565b61183482611932565b810181811067ffffffffffffffff8211171561185357611852611903565b5b80604052505050565b6000611867826117ad565b91507fffffffffffffffffffffffffffffffffffffffffffffffffffffffffffffffff82141561189a576118996118a5565b5b600182019050919050565b7f4e487b7100000000000000000000000000000000000000000000000000000000600052601160045260246000fd5b7f4e487b7100000000000000000000000000000000000000000000000000000000600052602260045260246000fd5b7f4e487b7100000000000000000000000000000000000000000000000000000000600052604160045260246000fd5b6000601f19601f8301169050919050565b61194c816117ad565b811461195757600080fd5b5056fea26469706673582212203e0b2e69576bb6b626e4b6861c09c6cbd6076ea2b9acff35546eb7ea80bde77464736f6c63430008040033",
  "immutableReferences": {},
  "source": "// SPDX-License-Identifier: MIT\npragma solidity >=0.4.22 <0.9.0;\n\ncontract SipcotPark {\n    struct Organization {\n        uint256 id;\n        string name;\n        string water_consumption;\n    }\n\n    struct Park {\n        uint256 id;\n        string parkName;\n        string water_consumption;\n        Organization[] organizations;\n    }\n    mapping(uint256 => Park) public Parks;\n    mapping(uint256 => Organization[]) public Organizations;\n\n    uint256 public numberOfParks = 0;\n    uint256 public numberOfOrganization = 0;\n\n    function storePark(Park[] memory _data) public {\n        for (uint256 i = 0; i < _data.length; i++) {\n            Park storage newParks = Parks[i];\n            newParks.id = _data[i].id;\n            newParks.parkName = _data[i].parkName;\n            newParks.water_consumption = _data[i].water_consumption;\n            if (_data[i].organizations.length > 0) {\n                for (uint256 j = 0; j < _data[i].organizations.length; j++) {\n                    Organization memory newStruct = Organization(\n                        _data[i].organizations[j].id,\n                        _data[i].organizations[j].name,\n                        _data[i].organizations[j].water_consumption\n                    );\n                    Organizations[_data[i].id].push(newStruct);\n                    numberOfOrganization++;\n                }\n            }\n            numberOfParks++;\n        }\n    }\n\n    function getParkArr() public view returns (Park[] memory) {\n        Park[] memory ret = new Park[](numberOfParks);\n        for (uint256 i = 0; i < numberOfParks; i++) {\n            ret[i] = Parks[i];\n        }\n        return ret;\n    }\n\n    function getOrganizationArr(\n        uint256 _id\n    ) public view returns (Organization[] memory) {\n        return Organizations[_id];\n    }\n}\n",
  "sourcePath": "/home/lenovo/iot-dapp/contracts/SipcotPark.sol",
  "compiler": {
    "name": "solc",
    "version": "0.8.4+commit.c7e474f2.Emscripten.clang"
  },
  "schemaVersion": "3.4.13",
  "updatedAt": "2023-06-09T11:35:53.482Z",
  "devdoc": {
    "kind": "dev",
    "methods": {},
    "version": 1
  },
  "userdoc": {
    "kind": "user",
    "methods": {},
    "version": 1
  }
}