{
  "contractName": "SipcotPark",
  "abi": [
    {
      "inputs": [
        {
          "internalType": "uint256",
          "name": "",
          "type": "uint256"
        }
      ],
      "name": "Parks",
      "outputs": [
        {
          "internalType": "uint256",
          "name": "id",
          "type": "uint256"
        },
        {
          "internalType": "string",
          "name": "parkName",
          "type": "string"
        },
        {
          "internalType": "uint256",
          "name": "water_consumption",
          "type": "uint256"
        }
      ],
      "stateMutability": "view",
      "type": "function"
    },
    {
      "inputs": [
        {
          "internalType": "uint256",
          "name": "",
          "type": "uint256"
        }
      ],
      "name": "id",
      "outputs": [
        {
          "internalType": "uint256",
          "name": "",
          "type": "uint256"
        }
      ],
      "stateMutability": "view",
      "type": "function"
    },
    {
      "inputs": [],
      "name": "numberOfParks",
      "outputs": [
        {
          "internalType": "uint256",
          "name": "",
          "type": "uint256"
        }
      ],
      "stateMutability": "view",
      "type": "function"
    },
    {
      "inputs": [
        {
          "internalType": "uint256",
          "name": "",
          "type": "uint256"
        }
      ],
      "name": "parkNames",
      "outputs": [
        {
          "internalType": "string",
          "name": "",
          "type": "string"
        }
      ],
      "stateMutability": "view",
      "type": "function"
    },
    {
      "inputs": [
        {
          "internalType": "uint256",
          "name": "",
          "type": "uint256"
        }
      ],
      "name": "water_consumption",
      "outputs": [
        {
          "internalType": "uint256",
          "name": "",
          "type": "uint256"
        }
      ],
      "stateMutability": "view",
      "type": "function"
    },
    {
      "inputs": [
        {
          "components": [
            {
              "internalType": "uint256",
              "name": "id",
              "type": "uint256"
            },
            {
              "internalType": "string",
              "name": "parkName",
              "type": "string"
            },
            {
              "internalType": "uint256",
              "name": "water_consumption",
              "type": "uint256"
            }
          ],
          "internalType": "struct SipcotPark.Park[]",
          "name": "_data",
          "type": "tuple[]"
        }
      ],
      "name": "storePark",
      "outputs": [],
      "stateMutability": "nonpayable",
      "type": "function"
    },
    {
      "inputs": [],
      "name": "getParkArr",
      "outputs": [
        {
          "components": [
            {
              "internalType": "uint256",
              "name": "id",
              "type": "uint256"
            },
            {
              "internalType": "string",
              "name": "parkName",
              "type": "string"
            },
            {
              "internalType": "uint256",
              "name": "water_consumption",
              "type": "uint256"
            }
          ],
          "internalType": "struct SipcotPark.Park[]",
          "name": "",
          "type": "tuple[]"
        }
      ],
      "stateMutability": "view",
      "type": "function"
    },
    {
      "inputs": [],
      "name": "getPark",
      "outputs": [
        {
          "internalType": "string[]",
          "name": "",
          "type": "string[]"
        }
      ],
      "stateMutability": "view",
      "type": "function"
    }
  ],
  "bytecode": "0x6080604052600060045534801561001557600080fd5b50610fce806100256000396000f3fe608060405234801561001057600080fd5b50600436106100885760003560e01c80638bcbdaae1161005b5780638bcbdaae14610129578063b935467f14610145578063bd16129614610175578063fc65a363146101a757610088565b806309448cf81461008d5780630b91f8b1146100bd5780637d3c40c8146100db578063819dfffa1461010b575b600080fd5b6100a760048036038101906100a291906109f0565b6101c5565b6040516100b49190610c4f565b60405180910390f35b6100c5610271565b6040516100d29190610c2d565b60405180910390f35b6100f560048036038101906100f091906109f0565b610423565b6040516101029190610c71565b60405180910390f35b610113610447565b6040516101209190610c0b565b60405180910390f35b610143600480360381019061013e91906109af565b610520565b005b61015f600480360381019061015a91906109f0565b61066a565b60405161016c9190610c71565b60405180910390f35b61018f600480360381019061018a91906109f0565b61068e565b60405161019e93929190610c8c565b60405180910390f35b6101af610740565b6040516101bc9190610c71565b60405180910390f35b600081815481106101d557600080fd5b9060005260206000200160009150905080546101f090610e37565b80601f016020809104026020016040519081016040528092919081815260200182805461021c90610e37565b80156102695780601f1061023e57610100808354040283529160200191610269565b820191906000526020600020905b81548152906001019060200180831161024c57829003601f168201915b505050505081565b6060600060045467ffffffffffffffff8111156102b7577f4e487b7100000000000000000000000000000000000000000000000000000000600052604160045260246000fd5b6040519080825280602002602001820160405280156102f057816020015b6102dd610746565b8152602001906001900390816102d55790505b50905060005b60045481101561041b57600360008281526020019081526020016000206040518060600160405290816000820154815260200160018201805461033890610e37565b80601f016020809104026020016040519081016040528092919081815260200182805461036490610e37565b80156103b15780601f10610386576101008083540402835291602001916103b1565b820191906000526020600020905b81548152906001019060200180831161039457829003601f168201915b505050505081526020016002820154815250508282815181106103fd577f4e487b7100000000000000000000000000000000000000000000000000000000600052603260045260246000fd5b6020026020010181905250808061041390610e9a565b9150506102f6565b508091505090565b6002818154811061043357600080fd5b906000526020600020016000915090505481565b60606000805480602002602001604051908101604052809291908181526020016000905b8282101561051757838290600052602060002001805461048a90610e37565b80601f01602080910402602001604051908101604052809291908181526020018280546104b690610e37565b80156105035780601f106104d857610100808354040283529160200191610503565b820191906000526020600020905b8154815290600101906020018083116104e657829003601f168201915b50505050508152602001906001019061046b565b50505050905090565b60005b815181101561066657600060036000838152602001908152602001600020905082828151811061057c577f4e487b7100000000000000000000000000000000000000000000000000000000600052603260045260246000fd5b60200260200101516000015181600001819055508282815181106105c9577f4e487b7100000000000000000000000000000000000000000000000000000000600052603260045260246000fd5b6020026020010151602001518160010190805190602001906105ec929190610767565b50828281518110610626577f4e487b7100000000000000000000000000000000000000000000000000000000600052603260045260246000fd5b60200260200101516040015181600201819055506004600081548092919061064d90610e9a565b919050555050808061065e90610e9a565b915050610523565b5050565b6001818154811061067a57600080fd5b906000526020600020016000915090505481565b60036020528060005260406000206000915090508060000154908060010180546106b790610e37565b80601f01602080910402602001604051908101604052809291908181526020018280546106e390610e37565b80156107305780601f1061070557610100808354040283529160200191610730565b820191906000526020600020905b81548152906001019060200180831161071357829003601f168201915b5050505050908060020154905083565b60045481565b60405180606001604052806000815260200160608152602001600081525090565b82805461077390610e37565b90600052602060002090601f01602090048101928261079557600085556107dc565b82601f106107ae57805160ff19168380011785556107dc565b828001600101855582156107dc579182015b828111156107db5782518255916020019190600101906107c0565b5b5090506107e991906107ed565b5090565b5b808211156108065760008160009055506001016107ee565b5090565b600061081d61081884610cef565b610cca565b9050808382526020820190508285602086028201111561083c57600080fd5b60005b8581101561088657813567ffffffffffffffff81111561085e57600080fd5b80860161086b8982610922565b8552602085019450602084019350505060018101905061083f565b5050509392505050565b60006108a361089e84610d1b565b610cca565b9050828152602081018484840111156108bb57600080fd5b6108c6848285610df5565b509392505050565b600082601f8301126108df57600080fd5b81356108ef84826020860161080a565b91505092915050565b600082601f83011261090957600080fd5b8135610919848260208601610890565b91505092915050565b60006060828403121561093457600080fd5b61093e6060610cca565b9050600061094e8482850161099a565b600083015250602082013567ffffffffffffffff81111561096e57600080fd5b61097a848285016108f8565b602083015250604061098e8482850161099a565b60408301525092915050565b6000813590506109a981610f81565b92915050565b6000602082840312156109c157600080fd5b600082013567ffffffffffffffff8111156109db57600080fd5b6109e7848285016108ce565b91505092915050565b600060208284031215610a0257600080fd5b6000610a108482850161099a565b91505092915050565b6000610a258383610b2b565b905092915050565b6000610a398383610b9d565b905092915050565b6000610a4c82610d6c565b610a568185610da7565b935083602082028501610a6885610d4c565b8060005b85811015610aa45784840389528151610a858582610a19565b9450610a9083610d8d565b925060208a01995050600181019050610a6c565b50829750879550505050505092915050565b6000610ac182610d77565b610acb8185610db8565b935083602082028501610add85610d5c565b8060005b85811015610b195784840389528151610afa8582610a2d565b9450610b0583610d9a565b925060208a01995050600181019050610ae1565b50829750879550505050505092915050565b6000610b3682610d82565b610b408185610dc9565b9350610b50818560208601610e04565b610b5981610f70565b840191505092915050565b6000610b6f82610d82565b610b798185610dda565b9350610b89818560208601610e04565b610b9281610f70565b840191505092915050565b6000606083016000830151610bb56000860182610bed565b5060208301518482036020860152610bcd8282610b2b565b9150506040830151610be26040860182610bed565b508091505092915050565b610bf681610deb565b82525050565b610c0581610deb565b82525050565b60006020820190508181036000830152610c258184610a41565b905092915050565b60006020820190508181036000830152610c478184610ab6565b905092915050565b60006020820190508181036000830152610c698184610b64565b905092915050565b6000602082019050610c866000830184610bfc565b92915050565b6000606082019050610ca16000830186610bfc565b8181036020830152610cb38185610b64565b9050610cc26040830184610bfc565b949350505050565b6000610cd4610ce5565b9050610ce08282610e69565b919050565b6000604051905090565b600067ffffffffffffffff821115610d0a57610d09610f41565b5b602082029050602081019050919050565b600067ffffffffffffffff821115610d3657610d35610f41565b5b610d3f82610f70565b9050602081019050919050565b6000819050602082019050919050565b6000819050602082019050919050565b600081519050919050565b600081519050919050565b600081519050919050565b6000602082019050919050565b6000602082019050919050565b600082825260208201905092915050565b600082825260208201905092915050565b600082825260208201905092915050565b600082825260208201905092915050565b6000819050919050565b82818337600083830152505050565b60005b83811015610e22578082015181840152602081019050610e07565b83811115610e31576000848401525b50505050565b60006002820490506001821680610e4f57607f821691505b60208210811415610e6357610e62610f12565b5b50919050565b610e7282610f70565b810181811067ffffffffffffffff82111715610e9157610e90610f41565b5b80604052505050565b6000610ea582610deb565b91507fffffffffffffffffffffffffffffffffffffffffffffffffffffffffffffffff821415610ed857610ed7610ee3565b5b600182019050919050565b7f4e487b7100000000000000000000000000000000000000000000000000000000600052601160045260246000fd5b7f4e487b7100000000000000000000000000000000000000000000000000000000600052602260045260246000fd5b7f4e487b7100000000000000000000000000000000000000000000000000000000600052604160045260246000fd5b6000601f19601f8301169050919050565b610f8a81610deb565b8114610f9557600080fd5b5056fea26469706673582212201217747d5cc3ecfc938f63bbf91c4b2658317c65c0ed6d0b172023bf2e9ee83464736f6c63430008040033",
  "immutableReferences": {},
  "source": "// SPDX-License-Identifier: MIT\npragma solidity >=0.4.22 <0.9.0;\n\ncontract SipcotPark {\n    struct Park {\n        uint256 id;\n        string parkName;\n        uint256 water_consumption;\n    }\n\n    string[] public parkNames;\n    uint256[] public water_consumption;\n    uint256[] public id;\n    // Park[] arr;\n    mapping(uint256 => Park) public Parks;\n\n    uint256 public numberOfParks = 0;\n\n    function storePark(Park[] memory _data) public {\n        for (uint256 i = 0; i < _data.length; i++) {\n            Park storage newParks = Parks[i];\n            newParks.id = _data[i].id;\n            newParks.parkName = _data[i].parkName;\n            newParks.water_consumption = _data[i].water_consumption;\n            // arr.push(_data[i]);\n            numberOfParks++;\n        }\n    }\n\n    function getParkArr() public view returns (Park[] memory) {\n        Park[] memory ret = new Park[](numberOfParks);\n        for (uint256 i = 0; i < numberOfParks; i++) {\n            ret[i] = Parks[i];\n        }\n        return ret;\n    }\n\n    function getPark() public view returns (string[] memory) {\n        return parkNames;\n    }\n}\n",
  "sourcePath": "/home/lenovo/iot-dapp/contracts/SipcotPark.sol",
  "compiler": {
    "name": "solc",
    "version": "0.8.4+commit.c7e474f2.Emscripten.clang"
  },
  "schemaVersion": "3.4.13",
  "updatedAt": "2023-05-04T19:36:26.560Z",
  "devdoc": {
    "kind": "dev",
    "methods": {},
    "version": 1
  },
  "userdoc": {
    "kind": "user",
    "methods": {},
    "version": 1
  }
}