{
  "contractName": "Storage",
  "abi": [
    {
      "inputs": [
        {
          "internalType": "uint256",
          "name": "",
          "type": "uint256"
        }
      ],
      "name": "Parks",
      "outputs": [
        {
          "internalType": "uint256",
          "name": "id",
          "type": "uint256"
        },
        {
          "internalType": "string",
          "name": "parkName",
          "type": "string"
        },
        {
          "internalType": "uint256",
          "name": "water_consumption",
          "type": "uint256"
        }
      ],
      "stateMutability": "view",
      "type": "function",
      "constant": true
    },
    {
      "inputs": [],
      "name": "approved",
      "outputs": [],
      "stateMutability": "nonpayable",
      "type": "function"
    },
    {
      "inputs": [
        {
          "internalType": "uint256",
          "name": "",
          "type": "uint256"
        }
      ],
      "name": "approvedUser",
      "outputs": [
        {
          "internalType": "address",
          "name": "",
          "type": "address"
        }
      ],
      "stateMutability": "view",
      "type": "function",
      "constant": true
    },
    {
      "inputs": [],
      "name": "getPark",
      "outputs": [
        {
          "internalType": "string[]",
          "name": "",
          "type": "string[]"
        }
      ],
      "stateMutability": "view",
      "type": "function",
      "constant": true
    },
    {
      "inputs": [],
      "name": "getParkArr",
      "outputs": [
        {
          "components": [
            {
              "internalType": "uint256",
              "name": "id",
              "type": "uint256"
            },
            {
              "internalType": "string",
              "name": "parkName",
              "type": "string"
            },
            {
              "internalType": "uint256",
              "name": "water_consumption",
              "type": "uint256"
            }
          ],
          "internalType": "struct SipcotPark.Park[]",
          "name": "",
          "type": "tuple[]"
        }
      ],
      "stateMutability": "view",
      "type": "function",
      "constant": true
    },
    {
      "inputs": [],
      "name": "getUser",
      "outputs": [
        {
          "internalType": "address[]",
          "name": "",
          "type": "address[]"
        }
      ],
      "stateMutability": "view",
      "type": "function",
      "constant": true
    },
    {
      "inputs": [
        {
          "internalType": "uint256",
          "name": "",
          "type": "uint256"
        }
      ],
      "name": "id",
      "outputs": [
        {
          "internalType": "uint256",
          "name": "",
          "type": "uint256"
        }
      ],
      "stateMutability": "view",
      "type": "function",
      "constant": true
    },
    {
      "inputs": [],
      "name": "numberOfParks",
      "outputs": [
        {
          "internalType": "uint256",
          "name": "",
          "type": "uint256"
        }
      ],
      "stateMutability": "view",
      "type": "function",
      "constant": true
    },
    {
      "inputs": [],
      "name": "numberOfapprovedUser",
      "outputs": [
        {
          "internalType": "uint256",
          "name": "",
          "type": "uint256"
        }
      ],
      "stateMutability": "view",
      "type": "function",
      "constant": true
    },
    {
      "inputs": [],
      "name": "numberOfrequstsUser",
      "outputs": [
        {
          "internalType": "uint256",
          "name": "",
          "type": "uint256"
        }
      ],
      "stateMutability": "view",
      "type": "function",
      "constant": true
    },
    {
      "inputs": [
        {
          "internalType": "uint256",
          "name": "",
          "type": "uint256"
        }
      ],
      "name": "parkNames",
      "outputs": [
        {
          "internalType": "string",
          "name": "",
          "type": "string"
        }
      ],
      "stateMutability": "view",
      "type": "function",
      "constant": true
    },
    {
      "inputs": [
        {
          "internalType": "address",
          "name": "account",
          "type": "address"
        }
      ],
      "name": "request",
      "outputs": [],
      "stateMutability": "nonpayable",
      "type": "function"
    },
    {
      "inputs": [
        {
          "internalType": "uint256",
          "name": "",
          "type": "uint256"
        }
      ],
      "name": "requstsUser",
      "outputs": [
        {
          "internalType": "address",
          "name": "",
          "type": "address"
        }
      ],
      "stateMutability": "view",
      "type": "function",
      "constant": true
    },
    {
      "inputs": [
        {
          "components": [
            {
              "internalType": "uint256",
              "name": "id",
              "type": "uint256"
            },
            {
              "internalType": "string",
              "name": "parkName",
              "type": "string"
            },
            {
              "internalType": "uint256",
              "name": "water_consumption",
              "type": "uint256"
            }
          ],
          "internalType": "struct SipcotPark.Park[]",
          "name": "_data",
          "type": "tuple[]"
        }
      ],
      "name": "storePark",
      "outputs": [],
      "stateMutability": "nonpayable",
      "type": "function"
    },
    {
      "inputs": [
        {
          "internalType": "uint256",
          "name": "",
          "type": "uint256"
        }
      ],
      "name": "water_consumption",
      "outputs": [
        {
          "internalType": "uint256",
          "name": "",
          "type": "uint256"
        }
      ],
      "stateMutability": "view",
      "type": "function",
      "constant": true
    },
    {
      "inputs": [
        {
          "internalType": "address",
          "name": "sender",
          "type": "address"
        }
      ],
      "name": "getAdmin",
      "outputs": [
        {
          "internalType": "address",
          "name": "",
          "type": "address"
        }
      ],
      "stateMutability": "view",
      "type": "function",
      "constant": true
    }
  ],
  "bytecode": "0x60806040527309458b509c75cab3bcb8ca75468ab88d6d7581286000806101000a81548173ffffffffffffffffffffffffffffffffffffffff021916908373ffffffffffffffffffffffffffffffffffffffff1602179055507309458b509c75cab3bcb8ca75468ab88d6d758128600160006101000a81548173ffffffffffffffffffffffffffffffffffffffff021916908373ffffffffffffffffffffffffffffffffffffffff1602179055507309458b509c75cab3bcb8ca75468ab88d6d758128600260006101000a81548173ffffffffffffffffffffffffffffffffffffffff021916908373ffffffffffffffffffffffffffffffffffffffff160217905550600060055560006006556000600c5534801561011d57600080fd5b506003600260009054906101000a900473ffffffffffffffffffffffffffffffffffffffff169080600181540180825580915050600190039060005260206000200160009091909190916101000a81548173ffffffffffffffffffffffffffffffffffffffff021916908373ffffffffffffffffffffffffffffffffffffffff160217905550600160076000600260009054906101000a900473ffffffffffffffffffffffffffffffffffffffff1673ffffffffffffffffffffffffffffffffffffffff1673ffffffffffffffffffffffffffffffffffffffff16815260200190815260200160002060006101000a81548160ff02191690831515021790555060016005819055506117ce806102346000396000f3fe608060405234801561001057600080fd5b50600436106101005760003560e01c8063853f1bc011610097578063bd16129611610066578063bd161296146102af578063f1c2fe9a146102e1578063f965774c146102ff578063fc65a3631461032f57610100565b8063853f1bc0146102155780638bcbdaae14610245578063a5c7fb2214610261578063b935467f1461027f57610100565b806364efb22b116100d357806364efb22b146101795780637d3c40c8146101a9578063819dfffa146101d9578063832880e7146101f757610100565b806309448cf8146101055780630b91f8b11461013557806319d40b081461015357806327c78c421461015d575b600080fd5b61011f600480360381019061011a9190610f9f565b61034d565b60405161012c9190611315565b60405180910390f35b61013d6103f9565b60405161014a91906112f3565b60405180910390f35b61015b6105ab565b005b61017760048036038101906101729190610f35565b6105ad565b005b610193600480360381019061018e9190610f35565b610712565b6040516101a09190611294565b60405180910390f35b6101c360048036038101906101be9190610f9f565b61087c565b6040516101d09190611377565b60405180910390f35b6101e16108a0565b6040516101ee91906112d1565b60405180910390f35b6101ff610979565b60405161020c91906112af565b60405180910390f35b61022f600480360381019061022a9190610f9f565b610a07565b60405161023c9190611294565b60405180910390f35b61025f600480360381019061025a9190610f5e565b610a46565b005b610269610b90565b6040516102769190611377565b60405180910390f35b61029960048036038101906102949190610f9f565b610b96565b6040516102a69190611377565b60405180910390f35b6102c960048036038101906102c49190610f9f565b610bba565b6040516102d893929190611392565b60405180910390f35b6102e9610c6c565b6040516102f69190611377565b60405180910390f35b61031960048036038101906103149190610f9f565b610c72565b6040516103269190611294565b60405180910390f35b610337610cb1565b6040516103449190611377565b60405180910390f35b6008818154811061035d57600080fd5b906000526020600020016000915090508054610378906115a8565b80601f01602080910402602001604051908101604052809291908181526020018280546103a4906115a8565b80156103f15780601f106103c6576101008083540402835291602001916103f1565b820191906000526020600020905b8154815290600101906020018083116103d457829003601f168201915b505050505081565b60606000600c5467ffffffffffffffff81111561043f577f4e487b7100000000000000000000000000000000000000000000000000000000600052604160045260246000fd5b60405190808252806020026020018201604052801561047857816020015b610465610cb7565b81526020019060019003908161045d5790505b50905060005b600c548110156105a357600b6000828152602001908152602001600020604051806060016040529081600082015481526020016001820180546104c0906115a8565b80601f01602080910402602001604051908101604052809291908181526020018280546104ec906115a8565b80156105395780601f1061050e57610100808354040283529160200191610539565b820191906000526020600020905b81548152906001019060200180831161051c57829003601f168201915b50505050508152602001600282015481525050828281518110610585577f4e487b7100000000000000000000000000000000000000000000000000000000600052603260045260246000fd5b6020026020010181905250808061059b9061160b565b91505061047e565b508091505090565b565b80600760008273ffffffffffffffffffffffffffffffffffffffff1673ffffffffffffffffffffffffffffffffffffffff16815260200190815260200160002060009054906101000a900460ff161561063b576040517f08c379a000000000000000000000000000000000000000000000000000000000815260040161063290611357565b60405180910390fd5b6003829080600181540180825580915050600190039060005260206000200160009091909190916101000a81548173ffffffffffffffffffffffffffffffffffffffff021916908373ffffffffffffffffffffffffffffffffffffffff160217905550600560008154809291906106b19061160b565b91905055506001600760008473ffffffffffffffffffffffffffffffffffffffff1673ffffffffffffffffffffffffffffffffffffffff16815260200190815260200160002060006101000a81548160ff0219169083151502179055505050565b60008160008054906101000a900473ffffffffffffffffffffffffffffffffffffffff1673ffffffffffffffffffffffffffffffffffffffff168173ffffffffffffffffffffffffffffffffffffffff1614806107bc5750600160009054906101000a900473ffffffffffffffffffffffffffffffffffffffff1673ffffffffffffffffffffffffffffffffffffffff168173ffffffffffffffffffffffffffffffffffffffff16145b806108145750600260009054906101000a900473ffffffffffffffffffffffffffffffffffffffff1673ffffffffffffffffffffffffffffffffffffffff168173ffffffffffffffffffffffffffffffffffffffff16145b610853576040517f08c379a000000000000000000000000000000000000000000000000000000000815260040161084a90611337565b60405180910390fd5b60008054906101000a900473ffffffffffffffffffffffffffffffffffffffff16915050919050565b600a818154811061088c57600080fd5b906000526020600020016000915090505481565b60606008805480602002602001604051908101604052809291908181526020016000905b828210156109705783829060005260206000200180546108e3906115a8565b80601f016020809104026020016040519081016040528092919081815260200182805461090f906115a8565b801561095c5780601f106109315761010080835404028352916020019161095c565b820191906000526020600020905b81548152906001019060200180831161093f57829003601f168201915b5050505050815260200190600101906108c4565b50505050905090565b606060038054806020026020016040519081016040528092919081815260200182805480156109fd57602002820191906000526020600020905b8160009054906101000a900473ffffffffffffffffffffffffffffffffffffffff1673ffffffffffffffffffffffffffffffffffffffff16815260200190600101908083116109b3575b5050505050905090565b60038181548110610a1757600080fd5b906000526020600020016000915054906101000a900473ffffffffffffffffffffffffffffffffffffffff1681565b60005b8151811015610b8c576000600b60008381526020019081526020016000209050828281518110610aa2577f4e487b7100000000000000000000000000000000000000000000000000000000600052603260045260246000fd5b6020026020010151600001518160000181905550828281518110610aef577f4e487b7100000000000000000000000000000000000000000000000000000000600052603260045260246000fd5b602002602001015160200151816001019080519060200190610b12929190610cd8565b50828281518110610b4c577f4e487b7100000000000000000000000000000000000000000000000000000000600052603260045260246000fd5b6020026020010151604001518160020181905550600c6000815480929190610b739061160b565b9190505550508080610b849061160b565b915050610a49565b5050565b60065481565b60098181548110610ba657600080fd5b906000526020600020016000915090505481565b600b602052806000526040600020600091509050806000015490806001018054610be3906115a8565b80601f0160208091040260200160405190810160405280929190818152602001828054610c0f906115a8565b8015610c5c5780601f10610c3157610100808354040283529160200191610c5c565b820191906000526020600020905b815481529060010190602001808311610c3f57829003601f168201915b5050505050908060020154905083565b60055481565b60048181548110610c8257600080fd5b906000526020600020016000915054906101000a900473ffffffffffffffffffffffffffffffffffffffff1681565b600c5481565b60405180606001604052806000815260200160608152602001600081525090565b828054610ce4906115a8565b90600052602060002090601f016020900481019282610d065760008555610d4d565b82601f10610d1f57805160ff1916838001178555610d4d565b82800160010185558215610d4d579182015b82811115610d4c578251825591602001919060010190610d31565b5b509050610d5a9190610d5e565b5090565b5b80821115610d77576000816000905550600101610d5f565b5090565b6000610d8e610d89846113f5565b6113d0565b90508083825260208201905082856020860282011115610dad57600080fd5b60005b85811015610df757813567ffffffffffffffff811115610dcf57600080fd5b808601610ddc8982610ea8565b85526020850194506020840193505050600181019050610db0565b5050509392505050565b6000610e14610e0f84611421565b6113d0565b905082815260208101848484011115610e2c57600080fd5b610e37848285611566565b509392505050565b600081359050610e4e8161176a565b92915050565b600082601f830112610e6557600080fd5b8135610e75848260208601610d7b565b91505092915050565b600082601f830112610e8f57600080fd5b8135610e9f848260208601610e01565b91505092915050565b600060608284031215610eba57600080fd5b610ec460606113d0565b90506000610ed484828501610f20565b600083015250602082013567ffffffffffffffff811115610ef457600080fd5b610f0084828501610e7e565b6020830152506040610f1484828501610f20565b60408301525092915050565b600081359050610f2f81611781565b92915050565b600060208284031215610f4757600080fd5b6000610f5584828501610e3f565b91505092915050565b600060208284031215610f7057600080fd5b600082013567ffffffffffffffff811115610f8a57600080fd5b610f9684828501610e54565b91505092915050565b600060208284031215610fb157600080fd5b6000610fbf84828501610f20565b91505092915050565b6000610fd48383611008565b60208301905092915050565b6000610fec838361116e565b905092915050565b60006110008383611226565b905092915050565b6110118161152a565b82525050565b6110208161152a565b82525050565b600061103182611482565b61103b81856114d5565b935061104683611452565b8060005b8381101561107757815161105e8882610fc8565b9750611069836114ae565b92505060018101905061104a565b5085935050505092915050565b600061108f8261148d565b61109981856114e6565b9350836020820285016110ab85611462565b8060005b858110156110e757848403895281516110c88582610fe0565b94506110d3836114bb565b925060208a019950506001810190506110af565b50829750879550505050505092915050565b600061110482611498565b61110e81856114f7565b93508360208202850161112085611472565b8060005b8581101561115c578484038952815161113d8582610ff4565b9450611148836114c8565b925060208a01995050600181019050611124565b50829750879550505050505092915050565b6000611179826114a3565b6111838185611508565b9350611193818560208601611575565b61119c816116e1565b840191505092915050565b60006111b2826114a3565b6111bc8185611519565b93506111cc818560208601611575565b6111d5816116e1565b840191505092915050565b60006111ed602183611519565b91506111f8826116f2565b604082019050919050565b6000611210601283611519565b915061121b82611741565b602082019050919050565b600060608301600083015161123e6000860182611276565b5060208301518482036020860152611256828261116e565b915050604083015161126b6040860182611276565b508091505092915050565b61127f8161155c565b82525050565b61128e8161155c565b82525050565b60006020820190506112a96000830184611017565b92915050565b600060208201905081810360008301526112c98184611026565b905092915050565b600060208201905081810360008301526112eb8184611084565b905092915050565b6000602082019050818103600083015261130d81846110f9565b905092915050565b6000602082019050818103600083015261132f81846111a7565b905092915050565b60006020820190508181036000830152611350816111e0565b9050919050565b6000602082019050818103600083015261137081611203565b9050919050565b600060208201905061138c6000830184611285565b92915050565b60006060820190506113a76000830186611285565b81810360208301526113b981856111a7565b90506113c86040830184611285565b949350505050565b60006113da6113eb565b90506113e682826115da565b919050565b6000604051905090565b600067ffffffffffffffff8211156114105761140f6116b2565b5b602082029050602081019050919050565b600067ffffffffffffffff82111561143c5761143b6116b2565b5b611445826116e1565b9050602081019050919050565b6000819050602082019050919050565b6000819050602082019050919050565b6000819050602082019050919050565b600081519050919050565b600081519050919050565b600081519050919050565b600081519050919050565b6000602082019050919050565b6000602082019050919050565b6000602082019050919050565b600082825260208201905092915050565b600082825260208201905092915050565b600082825260208201905092915050565b600082825260208201905092915050565b600082825260208201905092915050565b60006115358261153c565b9050919050565b600073ffffffffffffffffffffffffffffffffffffffff82169050919050565b6000819050919050565b82818337600083830152505050565b60005b83811015611593578082015181840152602081019050611578565b838111156115a2576000848401525b50505050565b600060028204905060018216806115c057607f821691505b602082108114156115d4576115d3611683565b5b50919050565b6115e3826116e1565b810181811067ffffffffffffffff82111715611602576116016116b2565b5b80604052505050565b60006116168261155c565b91507fffffffffffffffffffffffffffffffffffffffffffffffffffffffffffffffff82141561164957611648611654565b5b600182019050919050565b7f4e487b7100000000000000000000000000000000000000000000000000000000600052601160045260246000fd5b7f4e487b7100000000000000000000000000000000000000000000000000000000600052602260045260246000fd5b7f4e487b7100000000000000000000000000000000000000000000000000000000600052604160045260246000fd5b6000601f19601f8301169050919050565b7f4f6e6c79206f776e65722063616e2063616c6c20746869732066756e6374696f60008201527f6e00000000000000000000000000000000000000000000000000000000000000602082015250565b7f7573657220616c72656164792065786974730000000000000000000000000000600082015250565b6117738161152a565b811461177e57600080fd5b50565b61178a8161155c565b811461179557600080fd5b5056fea26469706673582212209e963834776e85d0f76c793d3d3c41bc337165b967f67a6d7b626058997646ef64736f6c63430008040033",
  "immutableReferences": {},
  "source": "// SPDX-License-Identifier: MIT\npragma solidity >=0.4.22 <0.9.0;\nimport \"./Permissions.sol\";\nimport \"./SipcotPark.sol\";\n\ncontract Storage is Permissions, SipcotPark {\n    function getAdmin(\n        address sender\n    ) public view restricted(sender) returns (address) {\n        return CAN_ADD_PARTICIPANT;\n    }\n}\n",
  "sourcePath": "/home/lenovo/iot-dapp/contracts/Storage.sol",
  "compiler": {
    "name": "solc",
    "version": "0.8.4+commit.c7e474f2.Emscripten.clang"
  },
  "schemaVersion": "3.4.13",
  "updatedAt": "2023-05-29T07:40:02.357Z",
  "networkType": "ethereum",
  "devdoc": {
    "kind": "dev",
    "methods": {},
    "version": 1
  },
  "userdoc": {
    "kind": "user",
    "methods": {},
    "version": 1
  }
}