{
  "contractName": "Storage",
  "abi": [
    {
      "inputs": [
        {
          "internalType": "uint256",
          "name": "",
          "type": "uint256"
        },
        {
          "internalType": "uint256",
          "name": "",
          "type": "uint256"
        }
      ],
      "name": "Flow_meters_industries",
      "outputs": [
        {
          "internalType": "string",
          "name": "state",
          "type": "string"
        }
      ],
      "stateMutability": "view",
      "type": "function",
      "constant": true
    },
    {
      "inputs": [
        {
          "internalType": "uint256",
          "name": "",
          "type": "uint256"
        },
        {
          "internalType": "uint256",
          "name": "",
          "type": "uint256"
        }
      ],
      "name": "Organizations",
      "outputs": [
        {
          "internalType": "uint256",
          "name": "id",
          "type": "uint256"
        },
        {
          "internalType": "string",
          "name": "name",
          "type": "string"
        },
        {
          "internalType": "string",
          "name": "water_consumption",
          "type": "string"
        }
      ],
      "stateMutability": "view",
      "type": "function",
      "constant": true
    },
    {
      "inputs": [
        {
          "internalType": "uint256",
          "name": "",
          "type": "uint256"
        }
      ],
      "name": "Parks",
      "outputs": [
        {
          "internalType": "uint256",
          "name": "id",
          "type": "uint256"
        },
        {
          "internalType": "string",
          "name": "parkName",
          "type": "string"
        },
        {
          "internalType": "string",
          "name": "water_consumption",
          "type": "string"
        }
      ],
      "stateMutability": "view",
      "type": "function",
      "constant": true
    },
    {
      "inputs": [],
      "name": "approved",
      "outputs": [],
      "stateMutability": "nonpayable",
      "type": "function"
    },
    {
      "inputs": [
        {
          "internalType": "uint256",
          "name": "",
          "type": "uint256"
        }
      ],
      "name": "approvedUser",
      "outputs": [
        {
          "internalType": "address",
          "name": "",
          "type": "address"
        }
      ],
      "stateMutability": "view",
      "type": "function",
      "constant": true
    },
    {
      "inputs": [
        {
          "internalType": "uint256",
          "name": "_id",
          "type": "uint256"
        }
      ],
      "name": "getOrganizationArr",
      "outputs": [
        {
          "components": [
            {
              "internalType": "uint256",
              "name": "id",
              "type": "uint256"
            },
            {
              "internalType": "string",
              "name": "name",
              "type": "string"
            },
            {
              "internalType": "string",
              "name": "water_consumption",
              "type": "string"
            }
          ],
          "internalType": "struct SipcotPark.Organization[]",
          "name": "",
          "type": "tuple[]"
        }
      ],
      "stateMutability": "view",
      "type": "function",
      "constant": true
    },
    {
      "inputs": [
        {
          "internalType": "uint256",
          "name": "_id",
          "type": "uint256"
        }
      ],
      "name": "getOrganizationStatus",
      "outputs": [
        {
          "components": [
            {
              "internalType": "string",
              "name": "state",
              "type": "string"
            }
          ],
          "internalType": "struct SipcotPark.DeviceState[]",
          "name": "",
          "type": "tuple[]"
        }
      ],
      "stateMutability": "view",
      "type": "function",
      "constant": true
    },
    {
      "inputs": [],
      "name": "getParkArr",
      "outputs": [
        {
          "components": [
            {
              "internalType": "uint256",
              "name": "id",
              "type": "uint256"
            },
            {
              "internalType": "string",
              "name": "parkName",
              "type": "string"
            },
            {
              "internalType": "string",
              "name": "water_consumption",
              "type": "string"
            }
          ],
          "internalType": "struct SipcotPark.Sipcot_park[]",
          "name": "",
          "type": "tuple[]"
        }
      ],
      "stateMutability": "view",
      "type": "function",
      "constant": true
    },
    {
      "inputs": [],
      "name": "getUser",
      "outputs": [
        {
          "internalType": "address[]",
          "name": "",
          "type": "address[]"
        }
      ],
      "stateMutability": "view",
      "type": "function",
      "constant": true
    },
    {
      "inputs": [],
      "name": "numberOfFlow_meters_industries",
      "outputs": [
        {
          "internalType": "uint256",
          "name": "",
          "type": "uint256"
        }
      ],
      "stateMutability": "view",
      "type": "function",
      "constant": true
    },
    {
      "inputs": [],
      "name": "numberOfOrganization",
      "outputs": [
        {
          "internalType": "uint256",
          "name": "",
          "type": "uint256"
        }
      ],
      "stateMutability": "view",
      "type": "function",
      "constant": true
    },
    {
      "inputs": [],
      "name": "numberOfParks",
      "outputs": [
        {
          "internalType": "uint256",
          "name": "",
          "type": "uint256"
        }
      ],
      "stateMutability": "view",
      "type": "function",
      "constant": true
    },
    {
      "inputs": [],
      "name": "numberOfapprovedUser",
      "outputs": [
        {
          "internalType": "uint256",
          "name": "",
          "type": "uint256"
        }
      ],
      "stateMutability": "view",
      "type": "function",
      "constant": true
    },
    {
      "inputs": [],
      "name": "numberOfrequstsUser",
      "outputs": [
        {
          "internalType": "uint256",
          "name": "",
          "type": "uint256"
        }
      ],
      "stateMutability": "view",
      "type": "function",
      "constant": true
    },
    {
      "inputs": [
        {
          "internalType": "address",
          "name": "account",
          "type": "address"
        }
      ],
      "name": "request",
      "outputs": [],
      "stateMutability": "nonpayable",
      "type": "function"
    },
    {
      "inputs": [
        {
          "internalType": "uint256",
          "name": "",
          "type": "uint256"
        }
      ],
      "name": "requstsUser",
      "outputs": [
        {
          "internalType": "address",
          "name": "",
          "type": "address"
        }
      ],
      "stateMutability": "view",
      "type": "function",
      "constant": true
    },
    {
      "inputs": [
        {
          "components": [
            {
              "internalType": "uint256",
              "name": "id",
              "type": "uint256"
            },
            {
              "internalType": "string",
              "name": "parkName",
              "type": "string"
            },
            {
              "internalType": "string",
              "name": "water_consumption",
              "type": "string"
            },
            {
              "components": [
                {
                  "internalType": "uint256",
                  "name": "id",
                  "type": "uint256"
                },
                {
                  "internalType": "string",
                  "name": "name",
                  "type": "string"
                },
                {
                  "internalType": "string",
                  "name": "water_consumption",
                  "type": "string"
                }
              ],
              "internalType": "struct SipcotPark.Organization[]",
              "name": "organizations",
              "type": "tuple[]"
            },
            {
              "components": [
                {
                  "internalType": "string",
                  "name": "state",
                  "type": "string"
                }
              ],
              "internalType": "struct SipcotPark.DeviceState[]",
              "name": "flow_meters_industries",
              "type": "tuple[]"
            }
          ],
          "internalType": "struct SipcotPark.Park[]",
          "name": "_data",
          "type": "tuple[]"
        }
      ],
      "name": "storePark",
      "outputs": [],
      "stateMutability": "nonpayable",
      "type": "function"
    },
    {
      "inputs": [
        {
          "internalType": "address",
          "name": "sender",
          "type": "address"
        }
      ],
      "name": "getAdmin",
      "outputs": [
        {
          "internalType": "address",
          "name": "",
          "type": "address"
        }
      ],
      "stateMutability": "view",
      "type": "function",
      "constant": true
    }
  ],
  "bytecode": "0x60806040527309458b509c75cab3bcb8ca75468ab88d6d7581286000806101000a81548173ffffffffffffffffffffffffffffffffffffffff021916908373ffffffffffffffffffffffffffffffffffffffff1602179055507309458b509c75cab3bcb8ca75468ab88d6d758128600160006101000a81548173ffffffffffffffffffffffffffffffffffffffff021916908373ffffffffffffffffffffffffffffffffffffffff1602179055507309458b509c75cab3bcb8ca75468ab88d6d758128600260006101000a81548173ffffffffffffffffffffffffffffffffffffffff021916908373ffffffffffffffffffffffffffffffffffffffff160217905550600060055560006006556000600c556000600d556000600e5534801561012757600080fd5b506003600260009054906101000a900473ffffffffffffffffffffffffffffffffffffffff169080600181540180825580915050600190039060005260206000200160009091909190916101000a81548173ffffffffffffffffffffffffffffffffffffffff021916908373ffffffffffffffffffffffffffffffffffffffff160217905550600160076000600260009054906101000a900473ffffffffffffffffffffffffffffffffffffffff1673ffffffffffffffffffffffffffffffffffffffff1673ffffffffffffffffffffffffffffffffffffffff16815260200190815260200160002060006101000a81548160ff021916908315150217905550600160058190555061287a8061023e6000396000f3fe608060405234801561001057600080fd5b50600436106101165760003560e01c8063a62fae91116100a2578063d006ed9711610071578063d006ed97146102fb578063d586e1ed14610317578063f1c2fe9a14610347578063f965774c14610365578063fc65a3631461039557610116565b8063a62fae9114610237578063b2573e1a14610267578063b660789a14610297578063bd161296146102c957610116565b806339199c38116100e957806339199c381461017d57806364efb22b1461019b578063832880e7146101cb578063853f1bc0146101e9578063a5c7fb221461021957610116565b80630b91f8b11461011b57806311f97e091461013957806319d40b081461015757806327c78c4214610161575b600080fd5b6101236103b3565b60405161013091906122b1565b60405180910390f35b610141610760565b60405161014e9190612335565b60405180910390f35b61015f610766565b005b61017b60048036038101906101769190611d84565b610768565b005b6101856108cd565b6040516101929190612335565b60405180910390f35b6101b560048036038101906101b09190611d84565b6108d3565b6040516101c29190612230565b60405180910390f35b6101d3610a3d565b6040516101e0919061224b565b60405180910390f35b61020360048036038101906101fe9190611dee565b610acb565b6040516102109190612230565b60405180910390f35b610221610b0a565b60405161022e9190612335565b60405180910390f35b610251600480360381019061024c9190611e17565b610b10565b60405161025e91906122d3565b60405180910390f35b610281600480360381019061027c9190611dee565b610bcf565b60405161028e919061228f565b60405180910390f35b6102b160048036038101906102ac9190611e17565b610d6f565b6040516102c093929190612350565b60405180910390f35b6102e360048036038101906102de9190611dee565b610ec6565b6040516102f293929190612350565b60405180910390f35b61031560048036038101906103109190611dad565b611000565b005b610331600480360381019061032c9190611dee565b61170b565b60405161033e919061226d565b60405180910390f35b61034f61180b565b60405161035c9190612335565b60405180910390f35b61037f600480360381019061037a9190611dee565b611811565b60405161038c9190612230565b60405180910390f35b61039d611850565b6040516103aa9190612335565b60405180910390f35b60606000600c5467ffffffffffffffff8111156103f9577f4e487b7100000000000000000000000000000000000000000000000000000000600052604160045260246000fd5b60405190808252806020026020018201604052801561043257816020015b61041f611856565b8152602001906001900390816104175790505b50905060005b600c54811015610758576009600082815260200190815260200160002060008154811061048e577f4e487b7100000000000000000000000000000000000000000000000000000000600052603260045260246000fd5b9060005260206000209060030201600001548282815181106104d9577f4e487b7100000000000000000000000000000000000000000000000000000000600052603260045260246000fd5b6020026020010151600001818152505060096000828152602001908152602001600020600081548110610535577f4e487b7100000000000000000000000000000000000000000000000000000000600052603260045260246000fd5b9060005260206000209060030201600101805461055190612654565b80601f016020809104026020016040519081016040528092919081815260200182805461057d90612654565b80156105ca5780601f1061059f576101008083540402835291602001916105ca565b820191906000526020600020905b8154815290600101906020018083116105ad57829003601f168201915b5050505050828281518110610608577f4e487b7100000000000000000000000000000000000000000000000000000000600052603260045260246000fd5b60200260200101516020018190525060096000828152602001908152602001600020600081548110610663577f4e487b7100000000000000000000000000000000000000000000000000000000600052603260045260246000fd5b9060005260206000209060030201600201805461067f90612654565b80601f01602080910402602001604051908101604052809291908181526020018280546106ab90612654565b80156106f85780601f106106cd576101008083540402835291602001916106f8565b820191906000526020600020905b8154815290600101906020018083116106db57829003601f168201915b5050505050828281518110610736577f4e487b7100000000000000000000000000000000000000000000000000000000600052603260045260246000fd5b6020026020010151604001819052508080610750906126b7565b915050610438565b508091505090565b600e5481565b565b80600760008273ffffffffffffffffffffffffffffffffffffffff1673ffffffffffffffffffffffffffffffffffffffff16815260200190815260200160002060009054906101000a900460ff16156107f6576040517f08c379a00000000000000000000000000000000000000000000000000000000081526004016107ed90612315565b60405180910390fd5b6003829080600181540180825580915050600190039060005260206000200160009091909190916101000a81548173ffffffffffffffffffffffffffffffffffffffff021916908373ffffffffffffffffffffffffffffffffffffffff1602179055506005600081548092919061086c906126b7565b91905055506001600760008473ffffffffffffffffffffffffffffffffffffffff1673ffffffffffffffffffffffffffffffffffffffff16815260200190815260200160002060006101000a81548160ff0219169083151502179055505050565b600d5481565b60008160008054906101000a900473ffffffffffffffffffffffffffffffffffffffff1673ffffffffffffffffffffffffffffffffffffffff168173ffffffffffffffffffffffffffffffffffffffff16148061097d5750600160009054906101000a900473ffffffffffffffffffffffffffffffffffffffff1673ffffffffffffffffffffffffffffffffffffffff168173ffffffffffffffffffffffffffffffffffffffff16145b806109d55750600260009054906101000a900473ffffffffffffffffffffffffffffffffffffffff1673ffffffffffffffffffffffffffffffffffffffff168173ffffffffffffffffffffffffffffffffffffffff16145b610a14576040517f08c379a0000000000000000000000000000000000000000000000000000000008152600401610a0b906122f5565b60405180910390fd5b60008054906101000a900473ffffffffffffffffffffffffffffffffffffffff16915050919050565b60606003805480602002602001604051908101604052809291908181526020018280548015610ac157602002820191906000526020600020905b8160009054906101000a900473ffffffffffffffffffffffffffffffffffffffff1673ffffffffffffffffffffffffffffffffffffffff1681526020019060010190808311610a77575b5050505050905090565b60038181548110610adb57600080fd5b906000526020600020016000915054906101000a900473ffffffffffffffffffffffffffffffffffffffff1681565b60065481565b600b6020528160005260406000208181548110610b2c57600080fd5b9060005260206000200160009150915050806000018054610b4c90612654565b80601f0160208091040260200160405190810160405280929190818152602001828054610b7890612654565b8015610bc55780601f10610b9a57610100808354040283529160200191610bc5565b820191906000526020600020905b815481529060010190602001808311610ba857829003601f168201915b5050505050905081565b6060600a6000838152602001908152602001600020805480602002602001604051908101604052809291908181526020016000905b82821015610d64578382906000526020600020906003020160405180606001604052908160008201548152602001600182018054610c4190612654565b80601f0160208091040260200160405190810160405280929190818152602001828054610c6d90612654565b8015610cba5780601f10610c8f57610100808354040283529160200191610cba565b820191906000526020600020905b815481529060010190602001808311610c9d57829003601f168201915b50505050508152602001600282018054610cd390612654565b80601f0160208091040260200160405190810160405280929190818152602001828054610cff90612654565b8015610d4c5780601f10610d2157610100808354040283529160200191610d4c565b820191906000526020600020905b815481529060010190602001808311610d2f57829003601f168201915b50505050508152505081526020019060010190610c04565b505050509050919050565b600a6020528160005260406000208181548110610d8b57600080fd5b906000526020600020906003020160009150915050806000015490806001018054610db590612654565b80601f0160208091040260200160405190810160405280929190818152602001828054610de190612654565b8015610e2e5780601f10610e0357610100808354040283529160200191610e2e565b820191906000526020600020905b815481529060010190602001808311610e1157829003601f168201915b505050505090806002018054610e4390612654565b80601f0160208091040260200160405190810160405280929190818152602001828054610e6f90612654565b8015610ebc5780601f10610e9157610100808354040283529160200191610ebc565b820191906000526020600020905b815481529060010190602001808311610e9f57829003601f168201915b5050505050905083565b6008602052806000526040600020600091509050806000015490806001018054610eef90612654565b80601f0160208091040260200160405190810160405280929190818152602001828054610f1b90612654565b8015610f685780601f10610f3d57610100808354040283529160200191610f68565b820191906000526020600020905b815481529060010190602001808311610f4b57829003601f168201915b505050505090806002018054610f7d90612654565b80601f0160208091040260200160405190810160405280929190818152602001828054610fa990612654565b8015610ff65780601f10610fcb57610100808354040283529160200191610ff6565b820191906000526020600020905b815481529060010190602001808311610fd957829003601f168201915b5050505050905083565b6000600c5482516110119190612580565b9050600080600c5490505b82811015611701576000604051806060016040528086858151811061106a577f4e487b7100000000000000000000000000000000000000000000000000000000600052603260045260246000fd5b60200260200101516000015181526020018685815181106110b4577f4e487b7100000000000000000000000000000000000000000000000000000000600052603260045260246000fd5b60200260200101516020015181526020018685815181106110fe577f4e487b7100000000000000000000000000000000000000000000000000000000600052603260045260246000fd5b602002602001015160400151815250905060096000838152602001908152602001600020819080600181540180825580915050600190039060005260206000209060030201600090919091909150600082015181600001556020820151816001019080519060200190611172929190611877565b50604082015181600201908051906020019061118f929190611877565b50505060008584815181106111cd577f4e487b7100000000000000000000000000000000000000000000000000000000600052603260045260246000fd5b60200260200101516080015151111561137d5760005b85848151811061121c577f4e487b7100000000000000000000000000000000000000000000000000000000600052603260045260246000fd5b6020026020010151608001515181101561137b5760006040518060200160405280888781518110611276577f4e487b7100000000000000000000000000000000000000000000000000000000600052603260045260246000fd5b60200260200101516080015184815181106112ba577f4e487b7100000000000000000000000000000000000000000000000000000000600052603260045260246000fd5b6020026020010151600001518152509050600b6000888781518110611308577f4e487b7100000000000000000000000000000000000000000000000000000000600052603260045260246000fd5b602002602001015160000151815260200190815260200160002081908060018154018082558091505060019003906000526020600020016000909190919091506000820151816000019080519060200190611364929190611877565b505050508080611373906126b7565b9150506111e3565b505b60008584815181106113b8577f4e487b7100000000000000000000000000000000000000000000000000000000600052603260045260246000fd5b6020026020010151606001515111156116c75760005b858481518110611407577f4e487b7100000000000000000000000000000000000000000000000000000000600052603260045260246000fd5b602002602001015160600151518110156116c55760006040518060600160405280888781518110611461577f4e487b7100000000000000000000000000000000000000000000000000000000600052603260045260246000fd5b60200260200101516060015184815181106114a5577f4e487b7100000000000000000000000000000000000000000000000000000000600052603260045260246000fd5b60200260200101516000015181526020018887815181106114ef577f4e487b7100000000000000000000000000000000000000000000000000000000600052603260045260246000fd5b6020026020010151606001518481518110611533577f4e487b7100000000000000000000000000000000000000000000000000000000600052603260045260246000fd5b602002602001015160200151815260200188878151811061157d577f4e487b7100000000000000000000000000000000000000000000000000000000600052603260045260246000fd5b60200260200101516060015184815181106115c1577f4e487b7100000000000000000000000000000000000000000000000000000000600052603260045260246000fd5b6020026020010151604001518152509050600a600088878151811061160f577f4e487b7100000000000000000000000000000000000000000000000000000000600052603260045260246000fd5b6020026020010151600001518152602001908152602001600020819080600181540180825580915050600190039060005260206000209060030201600090919091909150600082015181600001556020820151816001019080519060200190611679929190611877565b506040820151816002019080519060200190611696929190611877565b505050600d60008154809291906116ac906126b7565b91905055505080806116bd906126b7565b9150506113ce565b505b82806116d2906126b7565b935050600c60008154809291906116e8906126b7565b91905055505080806116f9906126b7565b91505061101c565b5060009050505050565b6060600b6000838152602001908152602001600020805480602002602001604051908101604052809291908181526020016000905b828210156118005783829060005260206000200160405180602001604052908160008201805461176f90612654565b80601f016020809104026020016040519081016040528092919081815260200182805461179b90612654565b80156117e85780601f106117bd576101008083540402835291602001916117e8565b820191906000526020600020905b8154815290600101906020018083116117cb57829003601f168201915b50505050508152505081526020019060010190611740565b505050509050919050565b60055481565b6004818154811061182157600080fd5b906000526020600020016000915054906101000a900473ffffffffffffffffffffffffffffffffffffffff1681565b600c5481565b60405180606001604052806000815260200160608152602001606081525090565b82805461188390612654565b90600052602060002090601f0160209004810192826118a557600085556118ec565b82601f106118be57805160ff19168380011785556118ec565b828001600101855582156118ec579182015b828111156118eb5782518255916020019190600101906118d0565b5b5090506118f991906118fd565b5090565b5b808211156119165760008160009055506001016118fe565b5090565b600061192d611928846123ba565b612395565b9050808382526020820190508285602086028201111561194c57600080fd5b60005b8581101561199657813567ffffffffffffffff81111561196e57600080fd5b80860161197b8982611ba7565b8552602085019450602084019350505060018101905061194f565b5050509392505050565b60006119b36119ae846123e6565b612395565b905080838252602082019050828560208602820111156119d257600080fd5b60005b85811015611a1c57813567ffffffffffffffff8111156119f457600080fd5b808601611a018982611bf7565b855260208501945060208401935050506001810190506119d5565b5050509392505050565b6000611a39611a3484612412565b612395565b90508083825260208201905082856020860282011115611a5857600080fd5b60005b85811015611aa257813567ffffffffffffffff811115611a7a57600080fd5b808601611a878982611c87565b85526020850194506020840193505050600181019050611a5b565b5050509392505050565b6000611abf611aba8461243e565b612395565b905082815260208101848484011115611ad757600080fd5b611ae2848285612612565b509392505050565b600081359050611af981612816565b92915050565b600082601f830112611b1057600080fd5b8135611b2084826020860161191a565b91505092915050565b600082601f830112611b3a57600080fd5b8135611b4a8482602086016119a0565b91505092915050565b600082601f830112611b6457600080fd5b8135611b74848260208601611a26565b91505092915050565b600082601f830112611b8e57600080fd5b8135611b9e848260208601611aac565b91505092915050565b600060208284031215611bb957600080fd5b611bc36020612395565b9050600082013567ffffffffffffffff811115611bdf57600080fd5b611beb84828501611b7d565b60008301525092915050565b600060608284031215611c0957600080fd5b611c136060612395565b90506000611c2384828501611d6f565b600083015250602082013567ffffffffffffffff811115611c4357600080fd5b611c4f84828501611b7d565b602083015250604082013567ffffffffffffffff811115611c6f57600080fd5b611c7b84828501611b7d565b60408301525092915050565b600060a08284031215611c9957600080fd5b611ca360a0612395565b90506000611cb384828501611d6f565b600083015250602082013567ffffffffffffffff811115611cd357600080fd5b611cdf84828501611b7d565b602083015250604082013567ffffffffffffffff811115611cff57600080fd5b611d0b84828501611b7d565b604083015250606082013567ffffffffffffffff811115611d2b57600080fd5b611d3784828501611b29565b606083015250608082013567ffffffffffffffff811115611d5757600080fd5b611d6384828501611aff565b60808301525092915050565b600081359050611d7e8161282d565b92915050565b600060208284031215611d9657600080fd5b6000611da484828501611aea565b91505092915050565b600060208284031215611dbf57600080fd5b600082013567ffffffffffffffff811115611dd957600080fd5b611de584828501611b53565b91505092915050565b600060208284031215611e0057600080fd5b6000611e0e84828501611d6f565b91505092915050565b60008060408385031215611e2a57600080fd5b6000611e3885828601611d6f565b9250506020611e4985828601611d6f565b9150509250929050565b6000611e5f8383611ea7565b60208301905092915050565b6000611e77838361213a565b905092915050565b6000611e8b8383612164565b905092915050565b6000611e9f83836121bb565b905092915050565b611eb0816125d6565b82525050565b611ebf816125d6565b82525050565b6000611ed0826124af565b611eda818561251a565b9350611ee58361246f565b8060005b83811015611f16578151611efd8882611e53565b9750611f08836124e6565b925050600181019050611ee9565b5085935050505092915050565b6000611f2e826124ba565b611f38818561252b565b935083602082028501611f4a8561247f565b8060005b85811015611f865784840389528151611f678582611e6b565b9450611f72836124f3565b925060208a01995050600181019050611f4e565b50829750879550505050505092915050565b6000611fa3826124c5565b611fad818561253c565b935083602082028501611fbf8561248f565b8060005b85811015611ffb5784840389528151611fdc8582611e7f565b9450611fe783612500565b925060208a01995050600181019050611fc3565b50829750879550505050505092915050565b6000612018826124d0565b612022818561254d565b9350836020820285016120348561249f565b8060005b8581101561207057848403895281516120518582611e93565b945061205c8361250d565b925060208a01995050600181019050612038565b50829750879550505050505092915050565b600061208d826124db565b612097818561255e565b93506120a7818560208601612621565b6120b08161278d565b840191505092915050565b60006120c6826124db565b6120d0818561256f565b93506120e0818560208601612621565b6120e98161278d565b840191505092915050565b600061210160218361256f565b915061210c8261279e565b604082019050919050565b600061212460128361256f565b915061212f826127ed565b602082019050919050565b600060208301600083015184820360008601526121578282612082565b9150508091505092915050565b600060608301600083015161217c6000860182612212565b50602083015184820360208601526121948282612082565b915050604083015184820360408601526121ae8282612082565b9150508091505092915050565b60006060830160008301516121d36000860182612212565b50602083015184820360208601526121eb8282612082565b915050604083015184820360408601526122058282612082565b9150508091505092915050565b61221b81612608565b82525050565b61222a81612608565b82525050565b60006020820190506122456000830184611eb6565b92915050565b600060208201905081810360008301526122658184611ec5565b905092915050565b600060208201905081810360008301526122878184611f23565b905092915050565b600060208201905081810360008301526122a98184611f98565b905092915050565b600060208201905081810360008301526122cb818461200d565b905092915050565b600060208201905081810360008301526122ed81846120bb565b905092915050565b6000602082019050818103600083015261230e816120f4565b9050919050565b6000602082019050818103600083015261232e81612117565b9050919050565b600060208201905061234a6000830184612221565b92915050565b60006060820190506123656000830186612221565b818103602083015261237781856120bb565b9050818103604083015261238b81846120bb565b9050949350505050565b600061239f6123b0565b90506123ab8282612686565b919050565b6000604051905090565b600067ffffffffffffffff8211156123d5576123d461275e565b5b602082029050602081019050919050565b600067ffffffffffffffff8211156124015761240061275e565b5b602082029050602081019050919050565b600067ffffffffffffffff82111561242d5761242c61275e565b5b602082029050602081019050919050565b600067ffffffffffffffff8211156124595761245861275e565b5b6124628261278d565b9050602081019050919050565b6000819050602082019050919050565b6000819050602082019050919050565b6000819050602082019050919050565b6000819050602082019050919050565b600081519050919050565b600081519050919050565b600081519050919050565b600081519050919050565b600081519050919050565b6000602082019050919050565b6000602082019050919050565b6000602082019050919050565b6000602082019050919050565b600082825260208201905092915050565b600082825260208201905092915050565b600082825260208201905092915050565b600082825260208201905092915050565b600082825260208201905092915050565b600082825260208201905092915050565b600061258b82612608565b915061259683612608565b9250827fffffffffffffffffffffffffffffffffffffffffffffffffffffffffffffffff038211156125cb576125ca612700565b5b828201905092915050565b60006125e1826125e8565b9050919050565b600073ffffffffffffffffffffffffffffffffffffffff82169050919050565b6000819050919050565b82818337600083830152505050565b60005b8381101561263f578082015181840152602081019050612624565b8381111561264e576000848401525b50505050565b6000600282049050600182168061266c57607f821691505b602082108114156126805761267f61272f565b5b50919050565b61268f8261278d565b810181811067ffffffffffffffff821117156126ae576126ad61275e565b5b80604052505050565b60006126c282612608565b91507fffffffffffffffffffffffffffffffffffffffffffffffffffffffffffffffff8214156126f5576126f4612700565b5b600182019050919050565b7f4e487b7100000000000000000000000000000000000000000000000000000000600052601160045260246000fd5b7f4e487b7100000000000000000000000000000000000000000000000000000000600052602260045260246000fd5b7f4e487b7100000000000000000000000000000000000000000000000000000000600052604160045260246000fd5b6000601f19601f8301169050919050565b7f4f6e6c79206f776e65722063616e2063616c6c20746869732066756e6374696f60008201527f6e00000000000000000000000000000000000000000000000000000000000000602082015250565b7f7573657220616c72656164792065786974730000000000000000000000000000600082015250565b61281f816125d6565b811461282a57600080fd5b50565b61283681612608565b811461284157600080fd5b5056fea2646970667358221220b2c78133965fdecab7d2666b86a04500ccb18e99fdcc52fe4feb5c3b50ee48b864736f6c63430008040033",
  "immutableReferences": {},
  "source": "// SPDX-License-Identifier: MIT\npragma solidity >=0.4.22 <0.9.0;\nimport \"./Permissions.sol\";\nimport \"./SipcotPark.sol\";\n\ncontract Storage is Permissions, SipcotPark {\n    function getAdmin(\n        address sender\n    ) public view restricted(sender) returns (address) {\n        return CAN_ADD_PARTICIPANT;\n    }\n}\n",
  "sourcePath": "/home/lenovo/iot-dapp/contracts/Storage.sol",
  "compiler": {
    "name": "solc",
    "version": "0.8.4+commit.c7e474f2.Emscripten.clang"
  },
  "schemaVersion": "3.4.13",
  "updatedAt": "2023-06-12T13:11:49.267Z",
  "networkType": "ethereum",
  "devdoc": {
    "kind": "dev",
    "methods": {},
    "version": 1
  },
  "userdoc": {
    "kind": "user",
    "methods": {},
    "version": 1
  }
}