{
  "contractName": "Storage",
  "abi": [
    {
      "inputs": [
        {
          "internalType": "uint256",
          "name": "",
          "type": "uint256"
        },
        {
          "internalType": "uint256",
          "name": "",
          "type": "uint256"
        }
      ],
      "name": "Organizations",
      "outputs": [
        {
          "internalType": "uint256",
          "name": "id",
          "type": "uint256"
        },
        {
          "internalType": "string",
          "name": "name",
          "type": "string"
        },
        {
          "internalType": "string",
          "name": "water_consumption",
          "type": "string"
        }
      ],
      "stateMutability": "view",
      "type": "function",
      "constant": true
    },
    {
      "inputs": [
        {
          "internalType": "uint256",
          "name": "",
          "type": "uint256"
        }
      ],
      "name": "Parks",
      "outputs": [
        {
          "internalType": "uint256",
          "name": "id",
          "type": "uint256"
        },
        {
          "internalType": "string",
          "name": "parkName",
          "type": "string"
        },
        {
          "internalType": "string",
          "name": "water_consumption",
          "type": "string"
        }
      ],
      "stateMutability": "view",
      "type": "function",
      "constant": true
    },
    {
      "inputs": [],
      "name": "approved",
      "outputs": [],
      "stateMutability": "nonpayable",
      "type": "function"
    },
    {
      "inputs": [
        {
          "internalType": "uint256",
          "name": "",
          "type": "uint256"
        }
      ],
      "name": "approvedUser",
      "outputs": [
        {
          "internalType": "address",
          "name": "",
          "type": "address"
        }
      ],
      "stateMutability": "view",
      "type": "function",
      "constant": true
    },
    {
      "inputs": [
        {
          "internalType": "uint256",
          "name": "_id",
          "type": "uint256"
        }
      ],
      "name": "getOrganizationArr",
      "outputs": [
        {
          "components": [
            {
              "internalType": "uint256",
              "name": "id",
              "type": "uint256"
            },
            {
              "internalType": "string",
              "name": "name",
              "type": "string"
            },
            {
              "internalType": "string",
              "name": "water_consumption",
              "type": "string"
            }
          ],
          "internalType": "struct SipcotPark.Organization[]",
          "name": "",
          "type": "tuple[]"
        }
      ],
      "stateMutability": "view",
      "type": "function",
      "constant": true
    },
    {
      "inputs": [],
      "name": "getParkArr",
      "outputs": [
        {
          "components": [
            {
              "internalType": "uint256",
              "name": "id",
              "type": "uint256"
            },
            {
              "internalType": "string",
              "name": "parkName",
              "type": "string"
            },
            {
              "internalType": "string",
              "name": "water_consumption",
              "type": "string"
            },
            {
              "components": [
                {
                  "internalType": "uint256",
                  "name": "id",
                  "type": "uint256"
                },
                {
                  "internalType": "string",
                  "name": "name",
                  "type": "string"
                },
                {
                  "internalType": "string",
                  "name": "water_consumption",
                  "type": "string"
                }
              ],
              "internalType": "struct SipcotPark.Organization[]",
              "name": "organizations",
              "type": "tuple[]"
            }
          ],
          "internalType": "struct SipcotPark.Park[]",
          "name": "",
          "type": "tuple[]"
        }
      ],
      "stateMutability": "view",
      "type": "function",
      "constant": true
    },
    {
      "inputs": [],
      "name": "getUser",
      "outputs": [
        {
          "internalType": "address[]",
          "name": "",
          "type": "address[]"
        }
      ],
      "stateMutability": "view",
      "type": "function",
      "constant": true
    },
    {
      "inputs": [],
      "name": "numberOfOrganization",
      "outputs": [
        {
          "internalType": "uint256",
          "name": "",
          "type": "uint256"
        }
      ],
      "stateMutability": "view",
      "type": "function",
      "constant": true
    },
    {
      "inputs": [],
      "name": "numberOfParks",
      "outputs": [
        {
          "internalType": "uint256",
          "name": "",
          "type": "uint256"
        }
      ],
      "stateMutability": "view",
      "type": "function",
      "constant": true
    },
    {
      "inputs": [],
      "name": "numberOfapprovedUser",
      "outputs": [
        {
          "internalType": "uint256",
          "name": "",
          "type": "uint256"
        }
      ],
      "stateMutability": "view",
      "type": "function",
      "constant": true
    },
    {
      "inputs": [],
      "name": "numberOfrequstsUser",
      "outputs": [
        {
          "internalType": "uint256",
          "name": "",
          "type": "uint256"
        }
      ],
      "stateMutability": "view",
      "type": "function",
      "constant": true
    },
    {
      "inputs": [
        {
          "internalType": "address",
          "name": "account",
          "type": "address"
        }
      ],
      "name": "request",
      "outputs": [],
      "stateMutability": "nonpayable",
      "type": "function"
    },
    {
      "inputs": [
        {
          "internalType": "uint256",
          "name": "",
          "type": "uint256"
        }
      ],
      "name": "requstsUser",
      "outputs": [
        {
          "internalType": "address",
          "name": "",
          "type": "address"
        }
      ],
      "stateMutability": "view",
      "type": "function",
      "constant": true
    },
    {
      "inputs": [
        {
          "components": [
            {
              "internalType": "uint256",
              "name": "id",
              "type": "uint256"
            },
            {
              "internalType": "string",
              "name": "parkName",
              "type": "string"
            },
            {
              "internalType": "string",
              "name": "water_consumption",
              "type": "string"
            },
            {
              "components": [
                {
                  "internalType": "uint256",
                  "name": "id",
                  "type": "uint256"
                },
                {
                  "internalType": "string",
                  "name": "name",
                  "type": "string"
                },
                {
                  "internalType": "string",
                  "name": "water_consumption",
                  "type": "string"
                }
              ],
              "internalType": "struct SipcotPark.Organization[]",
              "name": "organizations",
              "type": "tuple[]"
            }
          ],
          "internalType": "struct SipcotPark.Park[]",
          "name": "_data",
          "type": "tuple[]"
        }
      ],
      "name": "storePark",
      "outputs": [],
      "stateMutability": "nonpayable",
      "type": "function"
    },
    {
      "inputs": [
        {
          "internalType": "address",
          "name": "sender",
          "type": "address"
        }
      ],
      "name": "getAdmin",
      "outputs": [
        {
          "internalType": "address",
          "name": "",
          "type": "address"
        }
      ],
      "stateMutability": "view",
      "type": "function",
      "constant": true
    }
  ],
  "bytecode": "0x60806040527309458b509c75cab3bcb8ca75468ab88d6d7581286000806101000a81548173ffffffffffffffffffffffffffffffffffffffff021916908373ffffffffffffffffffffffffffffffffffffffff1602179055507309458b509c75cab3bcb8ca75468ab88d6d758128600160006101000a81548173ffffffffffffffffffffffffffffffffffffffff021916908373ffffffffffffffffffffffffffffffffffffffff1602179055507309458b509c75cab3bcb8ca75468ab88d6d758128600260006101000a81548173ffffffffffffffffffffffffffffffffffffffff021916908373ffffffffffffffffffffffffffffffffffffffff160217905550600060055560006006556000600a556000600b5534801561012257600080fd5b506003600260009054906101000a900473ffffffffffffffffffffffffffffffffffffffff169080600181540180825580915050600190039060005260206000200160009091909190916101000a81548173ffffffffffffffffffffffffffffffffffffffff021916908373ffffffffffffffffffffffffffffffffffffffff160217905550600160076000600260009054906101000a900473ffffffffffffffffffffffffffffffffffffffff1673ffffffffffffffffffffffffffffffffffffffff1673ffffffffffffffffffffffffffffffffffffffff16815260200190815260200160002060006101000a81548160ff0219169083151502179055506001600581905550612192806102396000396000f3fe608060405234801561001057600080fd5b50600436106100f55760003560e01c8063a5c7fb2211610097578063e2e6d5e411610066578063e2e6d5e41461028c578063f1c2fe9a146102a8578063f965774c146102c6578063fc65a363146102f6576100f5565b8063a5c7fb22146101da578063b2573e1a146101f8578063b660789a14610228578063bd1612961461025a576100f5565b806339199c38116100d357806339199c381461013e57806364efb22b1461015c578063832880e71461018c578063853f1bc0146101aa576100f5565b80630b91f8b1146100fa57806319d40b081461011857806327c78c4214610122575b600080fd5b610102610314565b60405161010f9190611c95565b60405180910390f35b6101206106db565b005b61013c600480360381019061013791906117ae565b6106dd565b005b610146610842565b6040516101539190611cf7565b60405180910390f35b610176600480360381019061017191906117ae565b610848565b6040516101839190611c36565b60405180910390f35b6101946109b2565b6040516101a19190611c51565b60405180910390f35b6101c460048036038101906101bf9190611818565b610a40565b6040516101d19190611c36565b60405180910390f35b6101e2610a7f565b6040516101ef9190611cf7565b60405180910390f35b610212600480360381019061020d9190611818565b610a85565b60405161021f9190611c73565b60405180910390f35b610242600480360381019061023d9190611841565b610c25565b60405161025193929190611d12565b60405180910390f35b610274600480360381019061026f9190611818565b610d7c565b60405161028393929190611d12565b60405180910390f35b6102a660048036038101906102a191906117d7565b610eb6565b005b6102b061135a565b6040516102bd9190611cf7565b60405180910390f35b6102e060048036038101906102db9190611818565b611360565b6040516102ed9190611c36565b60405180910390f35b6102fe61139f565b60405161030b9190611cf7565b60405180910390f35b60606000600a5467ffffffffffffffff81111561035a577f4e487b7100000000000000000000000000000000000000000000000000000000600052604160045260246000fd5b60405190808252806020026020018201604052801561039357816020015b6103806113a5565b8152602001906001900390816103785790505b50905060005b600a548110156106d35760086000828152602001908152602001600020604051806080016040529081600082015481526020016001820180546103db90611f6c565b80601f016020809104026020016040519081016040528092919081815260200182805461040790611f6c565b80156104545780601f1061042957610100808354040283529160200191610454565b820191906000526020600020905b81548152906001019060200180831161043757829003601f168201915b5050505050815260200160028201805461046d90611f6c565b80601f016020809104026020016040519081016040528092919081815260200182805461049990611f6c565b80156104e65780601f106104bb576101008083540402835291602001916104e6565b820191906000526020600020905b8154815290600101906020018083116104c957829003601f168201915b5050505050815260200160038201805480602002602001604051908101604052809291908181526020016000905b8282101561067457838290600052602060002090600302016040518060600160405290816000820154815260200160018201805461055190611f6c565b80601f016020809104026020016040519081016040528092919081815260200182805461057d90611f6c565b80156105ca5780601f1061059f576101008083540402835291602001916105ca565b820191906000526020600020905b8154815290600101906020018083116105ad57829003601f168201915b505050505081526020016002820180546105e390611f6c565b80601f016020809104026020016040519081016040528092919081815260200182805461060f90611f6c565b801561065c5780601f106106315761010080835404028352916020019161065c565b820191906000526020600020905b81548152906001019060200180831161063f57829003601f168201915b50505050508152505081526020019060010190610514565b50505050815250508282815181106106b5577f4e487b7100000000000000000000000000000000000000000000000000000000600052603260045260246000fd5b602002602001018190525080806106cb90611fcf565b915050610399565b508091505090565b565b80600760008273ffffffffffffffffffffffffffffffffffffffff1673ffffffffffffffffffffffffffffffffffffffff16815260200190815260200160002060009054906101000a900460ff161561076b576040517f08c379a000000000000000000000000000000000000000000000000000000000815260040161076290611cd7565b60405180910390fd5b6003829080600181540180825580915050600190039060005260206000200160009091909190916101000a81548173ffffffffffffffffffffffffffffffffffffffff021916908373ffffffffffffffffffffffffffffffffffffffff160217905550600560008154809291906107e190611fcf565b91905055506001600760008473ffffffffffffffffffffffffffffffffffffffff1673ffffffffffffffffffffffffffffffffffffffff16815260200190815260200160002060006101000a81548160ff0219169083151502179055505050565b600b5481565b60008160008054906101000a900473ffffffffffffffffffffffffffffffffffffffff1673ffffffffffffffffffffffffffffffffffffffff168173ffffffffffffffffffffffffffffffffffffffff1614806108f25750600160009054906101000a900473ffffffffffffffffffffffffffffffffffffffff1673ffffffffffffffffffffffffffffffffffffffff168173ffffffffffffffffffffffffffffffffffffffff16145b8061094a5750600260009054906101000a900473ffffffffffffffffffffffffffffffffffffffff1673ffffffffffffffffffffffffffffffffffffffff168173ffffffffffffffffffffffffffffffffffffffff16145b610989576040517f08c379a000000000000000000000000000000000000000000000000000000000815260040161098090611cb7565b60405180910390fd5b60008054906101000a900473ffffffffffffffffffffffffffffffffffffffff16915050919050565b60606003805480602002602001604051908101604052809291908181526020018280548015610a3657602002820191906000526020600020905b8160009054906101000a900473ffffffffffffffffffffffffffffffffffffffff1673ffffffffffffffffffffffffffffffffffffffff16815260200190600101908083116109ec575b5050505050905090565b60038181548110610a5057600080fd5b906000526020600020016000915054906101000a900473ffffffffffffffffffffffffffffffffffffffff1681565b60065481565b606060096000838152602001908152602001600020805480602002602001604051908101604052809291908181526020016000905b82821015610c1a578382906000526020600020906003020160405180606001604052908160008201548152602001600182018054610af790611f6c565b80601f0160208091040260200160405190810160405280929190818152602001828054610b2390611f6c565b8015610b705780601f10610b4557610100808354040283529160200191610b70565b820191906000526020600020905b815481529060010190602001808311610b5357829003601f168201915b50505050508152602001600282018054610b8990611f6c565b80601f0160208091040260200160405190810160405280929190818152602001828054610bb590611f6c565b8015610c025780601f10610bd757610100808354040283529160200191610c02565b820191906000526020600020905b815481529060010190602001808311610be557829003601f168201915b50505050508152505081526020019060010190610aba565b505050509050919050565b60096020528160005260406000208181548110610c4157600080fd5b906000526020600020906003020160009150915050806000015490806001018054610c6b90611f6c565b80601f0160208091040260200160405190810160405280929190818152602001828054610c9790611f6c565b8015610ce45780601f10610cb957610100808354040283529160200191610ce4565b820191906000526020600020905b815481529060010190602001808311610cc757829003601f168201915b505050505090806002018054610cf990611f6c565b80601f0160208091040260200160405190810160405280929190818152602001828054610d2590611f6c565b8015610d725780601f10610d4757610100808354040283529160200191610d72565b820191906000526020600020905b815481529060010190602001808311610d5557829003601f168201915b5050505050905083565b6008602052806000526040600020600091509050806000015490806001018054610da590611f6c565b80601f0160208091040260200160405190810160405280929190818152602001828054610dd190611f6c565b8015610e1e5780601f10610df357610100808354040283529160200191610e1e565b820191906000526020600020905b815481529060010190602001808311610e0157829003601f168201915b505050505090806002018054610e3390611f6c565b80601f0160208091040260200160405190810160405280929190818152602001828054610e5f90611f6c565b8015610eac5780601f10610e8157610100808354040283529160200191610eac565b820191906000526020600020905b815481529060010190602001808311610e8f57829003601f168201915b5050505050905083565b60005b8151811015611356576000600860008381526020019081526020016000209050828281518110610f12577f4e487b7100000000000000000000000000000000000000000000000000000000600052603260045260246000fd5b6020026020010151600001518160000181905550828281518110610f5f577f4e487b7100000000000000000000000000000000000000000000000000000000600052603260045260246000fd5b602002602001015160200151816001019080519060200190610f829291906113cd565b50828281518110610fbc577f4e487b7100000000000000000000000000000000000000000000000000000000600052603260045260246000fd5b602002602001015160400151816002019080519060200190610fdf9291906113cd565b50600083838151811061101b577f4e487b7100000000000000000000000000000000000000000000000000000000600052603260045260246000fd5b60200260200101516060015151111561132a5760005b83838151811061106a577f4e487b7100000000000000000000000000000000000000000000000000000000600052603260045260246000fd5b6020026020010151606001515181101561132857600060405180606001604052808686815181106110c4577f4e487b7100000000000000000000000000000000000000000000000000000000600052603260045260246000fd5b6020026020010151606001518481518110611108577f4e487b7100000000000000000000000000000000000000000000000000000000600052603260045260246000fd5b6020026020010151600001518152602001868681518110611152577f4e487b7100000000000000000000000000000000000000000000000000000000600052603260045260246000fd5b6020026020010151606001518481518110611196577f4e487b7100000000000000000000000000000000000000000000000000000000600052603260045260246000fd5b60200260200101516020015181526020018686815181106111e0577f4e487b7100000000000000000000000000000000000000000000000000000000600052603260045260246000fd5b6020026020010151606001518481518110611224577f4e487b7100000000000000000000000000000000000000000000000000000000600052603260045260246000fd5b602002602001015160400151815250905060096000868681518110611272577f4e487b7100000000000000000000000000000000000000000000000000000000600052603260045260246000fd5b60200260200101516000015181526020019081526020016000208190806001815401808255809150506001900390600052602060002090600302016000909190919091506000820151816000015560208201518160010190805190602001906112dc9291906113cd565b5060408201518160020190805190602001906112f99291906113cd565b505050600b600081548092919061130f90611fcf565b919050555050808061132090611fcf565b915050611031565b505b600a600081548092919061133d90611fcf565b919050555050808061134e90611fcf565b915050610eb9565b5050565b60055481565b6004818154811061137057600080fd5b906000526020600020016000915054906101000a900473ffffffffffffffffffffffffffffffffffffffff1681565b600a5481565b6040518060800160405280600081526020016060815260200160608152602001606081525090565b8280546113d990611f6c565b90600052602060002090601f0160209004810192826113fb5760008555611442565b82601f1061141457805160ff1916838001178555611442565b82800160010185558215611442579182015b82811115611441578251825591602001919060010190611426565b5b50905061144f9190611453565b5090565b5b8082111561146c576000816000905550600101611454565b5090565b600061148361147e84611d7c565b611d57565b905080838252602082019050828560208602820111156114a257600080fd5b60005b858110156114ec57813567ffffffffffffffff8111156114c457600080fd5b8086016114d1898261164d565b855260208501945060208401935050506001810190506114a5565b5050509392505050565b600061150961150484611da8565b611d57565b9050808382526020820190508285602086028201111561152857600080fd5b60005b8581101561157257813567ffffffffffffffff81111561154a57600080fd5b80860161155789826116dd565b8552602085019450602084019350505060018101905061152b565b5050509392505050565b600061158f61158a84611dd4565b611d57565b9050828152602081018484840111156115a757600080fd5b6115b2848285611f2a565b509392505050565b6000813590506115c98161212e565b92915050565b600082601f8301126115e057600080fd5b81356115f0848260208601611470565b91505092915050565b600082601f83011261160a57600080fd5b813561161a8482602086016114f6565b91505092915050565b600082601f83011261163457600080fd5b813561164484826020860161157c565b91505092915050565b60006060828403121561165f57600080fd5b6116696060611d57565b9050600061167984828501611799565b600083015250602082013567ffffffffffffffff81111561169957600080fd5b6116a584828501611623565b602083015250604082013567ffffffffffffffff8111156116c557600080fd5b6116d184828501611623565b60408301525092915050565b6000608082840312156116ef57600080fd5b6116f96080611d57565b9050600061170984828501611799565b600083015250602082013567ffffffffffffffff81111561172957600080fd5b61173584828501611623565b602083015250604082013567ffffffffffffffff81111561175557600080fd5b61176184828501611623565b604083015250606082013567ffffffffffffffff81111561178157600080fd5b61178d848285016115cf565b60608301525092915050565b6000813590506117a881612145565b92915050565b6000602082840312156117c057600080fd5b60006117ce848285016115ba565b91505092915050565b6000602082840312156117e957600080fd5b600082013567ffffffffffffffff81111561180357600080fd5b61180f848285016115f9565b91505092915050565b60006020828403121561182a57600080fd5b600061183884828501611799565b91505092915050565b6000806040838503121561185457600080fd5b600061186285828601611799565b925050602061187385828601611799565b9150509250929050565b600061188983836118bd565b60208301905092915050565b60006118a18383611b50565b905092915050565b60006118b58383611ba7565b905092915050565b6118c681611eee565b82525050565b6118d581611eee565b82525050565b60006118e682611e35565b6118f08185611e88565b93506118fb83611e05565b8060005b8381101561192c578151611913888261187d565b975061191e83611e61565b9250506001810190506118ff565b5085935050505092915050565b600061194482611e40565b61194e8185611e99565b93508360208202850161196085611e15565b8060005b8581101561199c578484038952815161197d8582611895565b945061198883611e6e565b925060208a01995050600181019050611964565b50829750879550505050505092915050565b60006119b982611e40565b6119c38185611eaa565b9350836020820285016119d585611e15565b8060005b85811015611a1157848403895281516119f28582611895565b94506119fd83611e6e565b925060208a019950506001810190506119d9565b50829750879550505050505092915050565b6000611a2e82611e4b565b611a388185611ebb565b935083602082028501611a4a85611e25565b8060005b85811015611a865784840389528151611a6785826118a9565b9450611a7283611e7b565b925060208a01995050600181019050611a4e565b50829750879550505050505092915050565b6000611aa382611e56565b611aad8185611ecc565b9350611abd818560208601611f39565b611ac6816120a5565b840191505092915050565b6000611adc82611e56565b611ae68185611edd565b9350611af6818560208601611f39565b611aff816120a5565b840191505092915050565b6000611b17602183611edd565b9150611b22826120b6565b604082019050919050565b6000611b3a601283611edd565b9150611b4582612105565b602082019050919050565b6000606083016000830151611b686000860182611c18565b5060208301518482036020860152611b808282611a98565b91505060408301518482036040860152611b9a8282611a98565b9150508091505092915050565b6000608083016000830151611bbf6000860182611c18565b5060208301518482036020860152611bd78282611a98565b91505060408301518482036040860152611bf18282611a98565b91505060608301518482036060860152611c0b8282611939565b9150508091505092915050565b611c2181611f20565b82525050565b611c3081611f20565b82525050565b6000602082019050611c4b60008301846118cc565b92915050565b60006020820190508181036000830152611c6b81846118db565b905092915050565b60006020820190508181036000830152611c8d81846119ae565b905092915050565b60006020820190508181036000830152611caf8184611a23565b905092915050565b60006020820190508181036000830152611cd081611b0a565b9050919050565b60006020820190508181036000830152611cf081611b2d565b9050919050565b6000602082019050611d0c6000830184611c27565b92915050565b6000606082019050611d276000830186611c27565b8181036020830152611d398185611ad1565b90508181036040830152611d4d8184611ad1565b9050949350505050565b6000611d61611d72565b9050611d6d8282611f9e565b919050565b6000604051905090565b600067ffffffffffffffff821115611d9757611d96612076565b5b602082029050602081019050919050565b600067ffffffffffffffff821115611dc357611dc2612076565b5b602082029050602081019050919050565b600067ffffffffffffffff821115611def57611dee612076565b5b611df8826120a5565b9050602081019050919050565b6000819050602082019050919050565b6000819050602082019050919050565b6000819050602082019050919050565b600081519050919050565b600081519050919050565b600081519050919050565b600081519050919050565b6000602082019050919050565b6000602082019050919050565b6000602082019050919050565b600082825260208201905092915050565b600082825260208201905092915050565b600082825260208201905092915050565b600082825260208201905092915050565b600082825260208201905092915050565b600082825260208201905092915050565b6000611ef982611f00565b9050919050565b600073ffffffffffffffffffffffffffffffffffffffff82169050919050565b6000819050919050565b82818337600083830152505050565b60005b83811015611f57578082015181840152602081019050611f3c565b83811115611f66576000848401525b50505050565b60006002820490506001821680611f8457607f821691505b60208210811415611f9857611f97612047565b5b50919050565b611fa7826120a5565b810181811067ffffffffffffffff82111715611fc657611fc5612076565b5b80604052505050565b6000611fda82611f20565b91507fffffffffffffffffffffffffffffffffffffffffffffffffffffffffffffffff82141561200d5761200c612018565b5b600182019050919050565b7f4e487b7100000000000000000000000000000000000000000000000000000000600052601160045260246000fd5b7f4e487b7100000000000000000000000000000000000000000000000000000000600052602260045260246000fd5b7f4e487b7100000000000000000000000000000000000000000000000000000000600052604160045260246000fd5b6000601f19601f8301169050919050565b7f4f6e6c79206f776e65722063616e2063616c6c20746869732066756e6374696f60008201527f6e00000000000000000000000000000000000000000000000000000000000000602082015250565b7f7573657220616c72656164792065786974730000000000000000000000000000600082015250565b61213781611eee565b811461214257600080fd5b50565b61214e81611f20565b811461215957600080fd5b5056fea2646970667358221220fa360cc44b6263197f17483a6fc2627a15175fff97ea8a860ec7097cbddc500064736f6c63430008040033",
  "immutableReferences": {},
  "source": "// SPDX-License-Identifier: MIT\npragma solidity >=0.4.22 <0.9.0;\nimport \"./Permissions.sol\";\nimport \"./SipcotPark.sol\";\n\ncontract Storage is Permissions, SipcotPark {\n    function getAdmin(\n        address sender\n    ) public view restricted(sender) returns (address) {\n        return CAN_ADD_PARTICIPANT;\n    }\n}\n",
  "sourcePath": "/home/lenovo/iot-dapp/contracts/Storage.sol",
  "compiler": {
    "name": "solc",
    "version": "0.8.4+commit.c7e474f2.Emscripten.clang"
  },
  "schemaVersion": "3.4.13",
  "updatedAt": "2023-06-09T11:38:20.777Z",
  "networkType": "ethereum",
  "devdoc": {
    "kind": "dev",
    "methods": {},
    "version": 1
  },
  "userdoc": {
    "kind": "user",
    "methods": {},
    "version": 1
  }
}